{"abi":[{"type":"constructor","inputs":[],"stateMutability":"nonpayable"},{"type":"function","name":"agents","inputs":[{"name":"","type":"address","internalType":"address"}],"outputs":[{"name":"name","type":"string","internalType":"string"},{"name":"gamesPlayed","type":"uint64","internalType":"uint64"},{"name":"wins","type":"uint64","internalType":"uint64"},{"name":"losses","type":"uint64","internalType":"uint64"},{"name":"kills","type":"uint64","internalType":"uint64"},{"name":"deaths","type":"uint64","internalType":"uint64"},{"name":"tasksCompleted","type":"uint64","internalType":"uint64"},{"name":"timesImpostor","type":"uint64","internalType":"uint64"},{"name":"timesCrewmate","type":"uint64","internalType":"uint64"},{"name":"totalEarnings","type":"uint128","internalType":"uint128"},{"name":"totalLost","type":"uint128","internalType":"uint128"},{"name":"registeredAt","type":"uint64","internalType":"uint64"},{"name":"lastPlayedAt","type":"uint64","internalType":"uint64"}],"stateMutability":"view"},{"type":"function","name":"allAgents","inputs":[{"name":"","type":"uint256","internalType":"uint256"}],"outputs":[{"name":"","type":"address","internalType":"address"}],"stateMutability":"view"},{"type":"function","name":"gameSettlement","inputs":[],"outputs":[{"name":"","type":"address","internalType":"address"}],"stateMutability":"view"},{"type":"function","name":"getAgentStats","inputs":[{"name":"agent","type":"address","internalType":"address"}],"outputs":[{"name":"name","type":"string","internalType":"string"},{"name":"gamesPlayed","type":"uint64","internalType":"uint64"},{"name":"wins","type":"uint64","internalType":"uint64"},{"name":"losses","type":"uint64","internalType":"uint64"},{"name":"kills","type":"uint64","internalType":"uint64"},{"name":"tasksCompleted","type":"uint64","internalType":"uint64"}],"stateMutability":"view"},{"type":"function","name":"getAllAgents","inputs":[],"outputs":[{"name":"","type":"address[]","internalType":"address[]"}],"stateMutability":"view"},{"type":"function","name":"getTopAgents","inputs":[{"name":"limit","type":"uint256","internalType":"uint256"}],"outputs":[{"name":"addresses","type":"address[]","internalType":"address[]"},{"name":"wins","type":"uint64[]","internalType":"uint64[]"}],"stateMutability":"view"},{"type":"function","name":"getTotalAgents","inputs":[],"outputs":[{"name":"","type":"uint256","internalType":"uint256"}],"stateMutability":"view"},{"type":"function","name":"getWinRate","inputs":[{"name":"agent","type":"address","internalType":"address"}],"outputs":[{"name":"","type":"uint256","internalType":"uint256"}],"stateMutability":"view"},{"type":"function","name":"isRegistered","inputs":[{"name":"","type":"address","internalType":"address"}],"outputs":[{"name":"","type":"bool","internalType":"bool"}],"stateMutability":"view"},{"type":"function","name":"owner","inputs":[],"outputs":[{"name":"","type":"address","internalType":"address"}],"stateMutability":"view"},{"type":"function","name":"recordDeath","inputs":[{"name":"agent","type":"address","internalType":"address"}],"outputs":[],"stateMutability":"nonpayable"},{"type":"function","name":"recordGameResult","inputs":[{"name":"agent","type":"address","internalType":"address"},{"name":"gameId","type":"bytes32","internalType":"bytes32"},{"name":"won","type":"bool","internalType":"bool"},{"name":"wasImpostor","type":"bool","internalType":"bool"},{"name":"kills","type":"uint64","internalType":"uint64"},{"name":"tasks","type":"uint64","internalType":"uint64"},{"name":"earnings","type":"uint128","internalType":"uint128"},{"name":"lost","type":"uint128","internalType":"uint128"}],"outputs":[],"stateMutability":"nonpayable"},{"type":"function","name":"registerAgent","inputs":[{"name":"agent","type":"address","internalType":"address"},{"name":"name","type":"string","internalType":"string"}],"outputs":[],"stateMutability":"nonpayable"},{"type":"function","name":"setGameSettlement","inputs":[{"name":"_gameSettlement","type":"address","internalType":"address"}],"outputs":[],"stateMutability":"nonpayable"},{"type":"function","name":"setWagerVault","inputs":[{"name":"_wagerVault","type":"address","internalType":"address"}],"outputs":[],"stateMutability":"nonpayable"},{"type":"function","name":"totalGamesPlayed","inputs":[],"outputs":[{"name":"","type":"uint256","internalType":"uint256"}],"stateMutability":"view"},{"type":"function","name":"transferOwnership","inputs":[{"name":"newOwner","type":"address","internalType":"address"}],"outputs":[],"stateMutability":"nonpayable"},{"type":"function","name":"updateName","inputs":[{"name":"newName","type":"string","internalType":"string"}],"outputs":[],"stateMutability":"nonpayable"},{"type":"function","name":"wagerVault","inputs":[],"outputs":[{"name":"","type":"address","internalType":"address"}],"stateMutability":"view"},{"type":"event","name":"AgentRegistered","inputs":[{"name":"agent","type":"address","indexed":true,"internalType":"address"},{"name":"name","type":"string","indexed":false,"internalType":"string"}],"anonymous":false},{"type":"event","name":"GameRecorded","inputs":[{"name":"agent","type":"address","indexed":true,"internalType":"address"},{"name":"gameId","type":"bytes32","indexed":true,"internalType":"bytes32"},{"name":"won","type":"bool","indexed":false,"internalType":"bool"},{"name":"wasImpostor","type":"bool","indexed":false,"internalType":"bool"}],"anonymous":false},{"type":"event","name":"StatsUpdated","inputs":[{"name":"agent","type":"address","indexed":true,"internalType":"address"},{"name":"gamesPlayed","type":"uint64","indexed":false,"internalType":"uint64"},{"name":"wins","type":"uint64","indexed":false,"internalType":"uint64"}],"anonymous":false}],"bytecode":{"object":"0x608080604052346026575f80546001600160a01b031916331790556117e3908161002b8239f35b5f80fdfe60806040526004361015610011575f80fd5b5f5f3560e01c80630ac277db14610e5e57806322b833d814610e1a5780632d1b2c0614610dcb57806332fb035c14610da3578063365f349d146109b55780633731a16f146109975780634ba8c8ba146109465780635c4921291461092857806384da92a71461078157806384df5d8414610758578063860e4ac6146106c25780638da5cb5b1461069b578063914a1e761461066f578063b1e29ea414610418578063b5695b38146102e7578063c3c5a547146102a8578063e0bb12f714610264578063f2fde38b146101dc5763fd66091e146100eb575f80fd5b346101d95760203660031901126101d95761015b906040906001600160a01b03610113610f19565b16815260036020522061012581611071565b906001600160401b0360018201549160028101549060046003820154910154916040519687966101a088526101a0880190610f98565b948481166020880152848160401c166040880152848160801c16606088015260c01c608087015283811660a0870152838160401c1660c0870152838160801c1660e087015260c01c6101008601526001600160801b03811661012086015260801c61014085015281811661016085015260401c166101808301520390f35b80fd5b50346101d95760203660031901126101d9576101f6610f19565b81549061020d336001600160a01b038416146115b3565b6001600160a01b031690811561022d576001600160a01b03191617815580f35b60405162461bcd60e51b815260206004820152600f60248201526e496e76616c6964206164647265737360881b6044820152606490fd5b50346101d95760203660031901126101d957600435906005548210156101d957602061028f83610fbc565b905460405160039290921b1c6001600160a01b03168152f35b50346101d95760203660031901126101d95760209060ff906040906001600160a01b036102d3610f19565b168152600484522054166040519015158152f35b50346101d95760203660031901126101d9576103fa906040906001600160a01b03610310610f19565b16815260036020522060405161032581611020565b61032e82611071565b918282526001810154916001600160401b038316928360208301526001600160401b038160401c168060408401526001600160401b038260801c169182606085015260c01c928360808201526101806001600160401b03600460028801549782891660a0860152828960401c16988960c0870152838160801c1660e087015260c01c61010086015260038101546001600160801b03811661012087015260801c610140860152015481811661016085015260401c1691015260405196879660c0885260c0880190610f98565b94602087015260408601526060850152608084015260a08301520390f35b50346101d95760203660031901126101d9576005549060043582811015610668575b61044381611767565b9261044d82611750565b9261045b6040519485611050565b82845261046783611750565b6020850190601f190136823761047c83611767565b92825b81811061063d57505081935b8351851080610634575b156105d557600185018086116105c1575b8451811015610557576001906001600160a01b036104c48288611799565b5116855260036020526001600160401b038260408720015460401c16828060a01b036104f08989611799565b5116865260036020526001600160401b038360408820015460401c1610610518575b016104a6565b818060a01b036105288888611799565b5116828060a01b0361053a8389611799565b51166105468989611799565b526105518288611799565b52610512565b50936105bb906001600160a01b0361056f8287611799565b511661057b828a611799565b526001600160a01b0361058e8287611799565b5116845260036020526001600160401b03600160408620015460401c166105b58289611799565b5261162c565b9361048b565b634e487b7160e01b84526011600452602484fd5b5085906105f392866020604051958695604087526040870190610f5c565b918583038287015251918281520192915b818110610612575050500390f35b82516001600160401b0316845285945060209384019390920191600101610604565b50808510610495565b80610649600192610fbc565b838060a01b0391549060031b1c166106618288611799565b520161047f565b508161043a565b50346101d95760203660031901126101d957602061069361068e610f19565b61163a565b604051908152f35b50346101d957806003193601126101d957546040516001600160a01b039091168152602090f35b50346101d957806003193601126101d95760405180916020600554928381520191600582527f036b6384b5eca791c62761152d0c79bb0604c104a5fb6f4eb0703f3154bb3db0915b818110610739576107358561072181870382611050565b604051918291602083526020830190610f5c565b0390f35b82546001600160a01b031684526020909301926001928301920161070a565b50346101d957806003193601126101d9576002546040516001600160a01b039091168152602090f35b50346101d95760203660031901126101d9576004356001600160401b038111610924576107b2903690600401610f2f565b919091338252600460205260ff604083205416156108ee5780156108b257338252600360205260408220906001600160401b03811161089e576107ff816107f98454610fe8565b8461117f565b82601f821160011461083e578190849561082e949592610833575b50508160011b915f199060031b1c19161790565b905580f35b013590505f8061081a565b601f198216948385526020852091855b87811061088657508360019596971061086d575b505050811b01905580f35b01355f19600384901b60f8161c191690555f8080610862565b9092602060018192868601358155019401910161084e565b634e487b7160e01b83526041600452602483fd5b60405162461bcd60e51b81526020600482015260146024820152734e616d652063616e6e6f7420626520656d70747960601b6044820152606490fd5b60405162461bcd60e51b815260206004820152600e60248201526d139bdd081c9959da5cdd195c995960921b6044820152606490fd5b5080fd5b50346101d957806003193601126101d9576020600654604051908152f35b50346101d95760203660031901126101d957610960610f19565b61097460018060a01b0383541633146115b3565b60018060a01b03166bffffffffffffffffffffffff60a01b600254161760025580f35b50346101d957806003193601126101d9576020600554604051908152f35b5034610d7857610100366003190112610d78576109d0610f19565b604435801515808203610d78576064359283151590818503610d78576084356001600160401b0381168103610d785760a4356001600160401b0381168103610d785760c435966001600160801b0388168803610d785760e435936001600160801b0385168503610d78576001546001600160a01b031633148015610d8f575b8015610d7c575b610a5f90611111565b6001600160a01b03165f8181526004602052604090205490989060ff1615610cd6575b917f64e87b1dff5b253607158203011b45b2d113542b97af093402cc964c74e2c4e99795939160409795938a8c526003602052888c209460018601986001600160401b03610ad2818c541661114e565b166001600160401b03198b5416178a55610af86001600160401b034216600489016111ce565b15610c595750610b1c610b166001600160401b038a548c1c1661114e565b896111ce565b6001600160801b03610b356003870192828454166115ec565b166001600160801b03198254161790555b15610c1f5750610ba290610b986002610bc29401610b706001600160401b03825460801c1661114e565b815467ffffffffffffffff60801b191660809190911b67ffffffffffffffff60801b16179055565b855460c01c61160c565b84546001600160c01b031660c09190911b6001600160c01b031916178455565b610bcd60065461162c565b60065583519182526020820152847fd179e19dfbea77119f33340426c612af27e6b5bca3cd730ed8f013615fc542d08460243593a3546001600160401b038251918181168352831c166020820152a280f35b9050610c4e6002610c54930191610c3c610ba2845460c01c61114e565b6001600160401b038354891c1661160c565b906111ce565b610bc2565b610cd19150610c9f610c776001600160401b038b5460801c1661114e565b8a5467ffffffffffffffff60801b191660809190911b67ffffffffffffffff60801b16178a55565b610cb16003870191825460801c6115ec565b81546001600160801b031660809190911b6001600160801b031916179055565b610b46565b303b15610d7857604051630457067b60e31b81528960048201526040602482015260056044820152641059d95b9d60da1b60648201525f8160848183305af18015610d6d57610d26575b50610a82565b6040979593919a5091610d5d5f7f64e87b1dff5b253607158203011b45b2d113542b97af093402cc964c74e2c4e99a989694611050565b5f9a919395975091939597610d20565b6040513d5f823e3d90fd5b5f80fd5b505f546001600160a01b03163314610a56565b506002546001600160a01b03163314610a4f565b34610d78575f366003190112610d78576001546040516001600160a01b039091168152602090f35b34610d78576020366003190112610d7857610de4610f19565b610df860018060a01b035f541633146115b3565b600180546001600160a01b0319166001600160a01b0392909216919091179055005b34610d78576040366003190112610d7857610e33610f19565b602435906001600160401b038211610d7857610e56610e5c923690600401610f2f565b916111f6565b005b34610d78576020366003190112610d7857610e77610f19565b6001546001600160a01b031633148015610f05575b8015610ef2575b610e9c90611111565b6001600160a01b03165f8181526004602052604090205460ff16610ebc57005b5f526003602052600260405f20016001600160401b03610ede8183541661114e565b825467ffffffffffffffff19169116179055005b505f546001600160a01b03163314610e93565b506002546001600160a01b03163314610e8c565b600435906001600160a01b0382168203610d7857565b9181601f84011215610d78578235916001600160401b038311610d785760208381860195010111610d7857565b90602080835192838152019201905f5b818110610f795750505090565b82516001600160a01b0316845260209384019390920191600101610f6c565b805180835260209291819084018484015e5f828201840152601f01601f1916010190565b600554811015610fd45760055f5260205f2001905f90565b634e487b7160e01b5f52603260045260245ffd5b90600182811c92168015611016575b602083101461100257565b634e487b7160e01b5f52602260045260245ffd5b91607f1691610ff7565b6101a081019081106001600160401b0382111761103c57604052565b634e487b7160e01b5f52604160045260245ffd5b90601f801991011681019081106001600160401b0382111761103c57604052565b9060405191825f82549261108484610fe8565b80845293600181169081156110ef57506001146110ab575b506110a992500383611050565b565b90505f9291925260205f20905f915b8183106110d35750509060206110a9928201015f61109c565b60209193508060019154838589010152019101909184926110ba565b9050602092506110a994915060ff191682840152151560051b8201015f61109c565b1561111857565b60405162461bcd60e51b815260206004820152600e60248201526d139bdd08185d5d1a1bdc9a5e995960921b6044820152606490fd5b6001600160401b03166001600160401b03811461116b5760010190565b634e487b7160e01b5f52601160045260245ffd5b601f821161118c57505050565b5f5260205f20906020601f840160051c830193106111c4575b601f0160051c01905b8181106111b9575050565b5f81556001016111ae565b90915081906111a5565b9067ffffffffffffffff60401b82549160401b169067ffffffffffffffff60401b1916179055565b6001600160a01b03165f8181526004602052604090205490929060ff166115ae578015611587576001600160401b03811161103c5760405191611243601f8301601f191660200184611050565b8183523682820111610d7857815f9260209283860137830101525b60405161126a81611020565b8181525f60208201525f60408201525f60608201525f60808201525f60a08201525f60c08201525f60e08201525f6101008201525f6101208201525f6101408201526001600160401b0342166101608201525f610180820152825f52600360205260405f2081518051906001600160401b03821161103c576112f6826112f08554610fe8565b8561117f565b602090601f8311600114611510576114739493611337846001600160401b0395610180956004955f926115055750508160011b915f199060031b1c19161790565b81555b6113b260018201858060208901511616861982541617815561136286604089015116826111ce565b6060870151815467ffffffffffffffff60801b191690871660801b67ffffffffffffffff60801b16178155608087015181546001600160c01b031690871660c01b6001600160c01b031916179055565b61142b60028201858060a0890151161686198254161781556113da8660c089015116826111ce565b60e0870151815467ffffffffffffffff60801b191690871660801b67ffffffffffffffff60801b1617815561010087015181546001600160c01b031690871660c01b6001600160c01b031916179055565b61012085015161014086015160801b6001600160801b0319166001600160801b03919091161760038201550192828061016083015116168319855416178455015116906111ce565b815f52600460205260405f20600160ff198254161790556005546801000000000000000081101561103c577fda816ca2fc37b9eecec62ae8263008ec6be1afb38dc28bc9c7c51d7e348da9c2916114d38260016115009401600555610fbc565b81549060031b9086821b9160018060a01b03901b1916179055604051918291602083526020830190610f98565b0390a2565b015190505f8061081a565b90835f52805f20915f5b601f198516811061156f5750936001846101809460049461147399986001600160401b0398601f19811610611557575b505050811b01815561133a565b01515f1960f88460031b161c191690555f808061154a565b9192602060018192868501518155019401920161151a565b5050604051611597604082611050565b60058152641059d95b9d60da1b602082015261125e565b505050565b156115ba57565b60405162461bcd60e51b815260206004820152600a60248201526927b7363c9037bbb732b960b11b6044820152606490fd5b906001600160801b03809116911601906001600160801b03821161116b57565b906001600160401b03809116911601906001600160401b03821161116b57565b5f19811461116b5760010190565b60018060a01b03165f52600360205260405f206040519061165a82611020565b61166381611071565b82526001810154916001600160401b038316906101806001600160401b0360046020840195858752828860401c1697886040870152838160801c16606087015260c01c6080860152600281015483811660a0870152838160401c1660c0870152838160801c1660e087015260c01c61010086015260038101546001600160801b03811661012087015260801c610140860152015481811661016085015260401c169101521561174a57612710820291808304612710149015171561116b57516001600160401b0316908115611736570490565b634e487b7160e01b5f52601260045260245ffd5b50505f90565b6001600160401b03811161103c5760051b60200190565b9061177182611750565b61177e6040519182611050565b828152809261178f601f1991611750565b0190602036910137565b8051821015610fd45760209160051b01019056fea264697066735822122029a66386e809e10659b7d6f75b1530da1630c8f5a6a9b199b4f5c6d05f63e96764736f6c634300081c0033","linkReferences":{}},"methodIdentifiers":{"agents(address)":"fd66091e","allAgents(uint256)":"e0bb12f7","gameSettlement()":"32fb035c","getAgentStats(address)":"b5695b38","getAllAgents()":"860e4ac6","getTopAgents(uint256)":"b1e29ea4","getTotalAgents()":"3731a16f","getWinRate(address)":"914a1e76","isRegistered(address)":"c3c5a547","owner()":"8da5cb5b","recordDeath(address)":"0ac277db","recordGameResult(address,bytes32,bool,bool,uint64,uint64,uint128,uint128)":"365f349d","registerAgent(address,string)":"22b833d8","setGameSettlement(address)":"2d1b2c06","setWagerVault(address)":"4ba8c8ba","totalGamesPlayed()":"5c492129","transferOwnership(address)":"f2fde38b","updateName(string)":"84da92a7","wagerVault()":"84df5d84"},"id":21}