{"abi":[{"type":"constructor","inputs":[],"stateMutability":"nonpayable"},{"type":"function","name":"agents","inputs":[{"name":"","type":"address","internalType":"address"}],"outputs":[{"name":"name","type":"string","internalType":"string"},{"name":"gamesPlayed","type":"uint64","internalType":"uint64"},{"name":"wins","type":"uint64","internalType":"uint64"},{"name":"losses","type":"uint64","internalType":"uint64"},{"name":"kills","type":"uint64","internalType":"uint64"},{"name":"deaths","type":"uint64","internalType":"uint64"},{"name":"tasksCompleted","type":"uint64","internalType":"uint64"},{"name":"timesImpostor","type":"uint64","internalType":"uint64"},{"name":"timesCrewmate","type":"uint64","internalType":"uint64"},{"name":"totalEarnings","type":"uint128","internalType":"uint128"},{"name":"totalLost","type":"uint128","internalType":"uint128"},{"name":"registeredAt","type":"uint64","internalType":"uint64"},{"name":"lastPlayedAt","type":"uint64","internalType":"uint64"}],"stateMutability":"view"},{"type":"function","name":"allAgents","inputs":[{"name":"","type":"uint256","internalType":"uint256"}],"outputs":[{"name":"","type":"address","internalType":"address"}],"stateMutability":"view"},{"type":"function","name":"gameSettlement","inputs":[],"outputs":[{"name":"","type":"address","internalType":"address"}],"stateMutability":"view"},{"type":"function","name":"getAgentStats","inputs":[{"name":"agent","type":"address","internalType":"address"}],"outputs":[{"name":"name","type":"string","internalType":"string"},{"name":"gamesPlayed","type":"uint64","internalType":"uint64"},{"name":"wins","type":"uint64","internalType":"uint64"},{"name":"losses","type":"uint64","internalType":"uint64"},{"name":"kills","type":"uint64","internalType":"uint64"},{"name":"tasksCompleted","type":"uint64","internalType":"uint64"}],"stateMutability":"view"},{"type":"function","name":"getAllAgents","inputs":[],"outputs":[{"name":"","type":"address[]","internalType":"address[]"}],"stateMutability":"view"},{"type":"function","name":"getTopAgents","inputs":[{"name":"limit","type":"uint256","internalType":"uint256"}],"outputs":[{"name":"addresses","type":"address[]","internalType":"address[]"},{"name":"wins","type":"uint64[]","internalType":"uint64[]"}],"stateMutability":"view"},{"type":"function","name":"getTotalAgents","inputs":[],"outputs":[{"name":"","type":"uint256","internalType":"uint256"}],"stateMutability":"view"},{"type":"function","name":"getWinRate","inputs":[{"name":"agent","type":"address","internalType":"address"}],"outputs":[{"name":"","type":"uint256","internalType":"uint256"}],"stateMutability":"view"},{"type":"function","name":"isRegistered","inputs":[{"name":"","type":"address","internalType":"address"}],"outputs":[{"name":"","type":"bool","internalType":"bool"}],"stateMutability":"view"},{"type":"function","name":"owner","inputs":[],"outputs":[{"name":"","type":"address","internalType":"address"}],"stateMutability":"view"},{"type":"function","name":"recordDeath","inputs":[{"name":"agent","type":"address","internalType":"address"}],"outputs":[],"stateMutability":"nonpayable"},{"type":"function","name":"recordGameResult","inputs":[{"name":"agent","type":"address","internalType":"address"},{"name":"gameId","type":"bytes32","internalType":"bytes32"},{"name":"won","type":"bool","internalType":"bool"},{"name":"wasImpostor","type":"bool","internalType":"bool"},{"name":"kills","type":"uint64","internalType":"uint64"},{"name":"tasks","type":"uint64","internalType":"uint64"},{"name":"earnings","type":"uint128","internalType":"uint128"},{"name":"lost","type":"uint128","internalType":"uint128"}],"outputs":[],"stateMutability":"nonpayable"},{"type":"function","name":"registerAgent","inputs":[{"name":"agent","type":"address","internalType":"address"},{"name":"name","type":"string","internalType":"string"}],"outputs":[],"stateMutability":"nonpayable"},{"type":"function","name":"setGameSettlement","inputs":[{"name":"_gameSettlement","type":"address","internalType":"address"}],"outputs":[],"stateMutability":"nonpayable"},{"type":"function","name":"setWagerVault","inputs":[{"name":"_wagerVault","type":"address","internalType":"address"}],"outputs":[],"stateMutability":"nonpayable"},{"type":"function","name":"totalGamesPlayed","inputs":[],"outputs":[{"name":"","type":"uint256","internalType":"uint256"}],"stateMutability":"view"},{"type":"function","name":"transferOwnership","inputs":[{"name":"newOwner","type":"address","internalType":"address"}],"outputs":[],"stateMutability":"nonpayable"},{"type":"function","name":"updateName","inputs":[{"name":"newName","type":"string","internalType":"string"}],"outputs":[],"stateMutability":"nonpayable"},{"type":"function","name":"wagerVault","inputs":[],"outputs":[{"name":"","type":"address","internalType":"address"}],"stateMutability":"view"},{"type":"event","name":"AgentRegistered","inputs":[{"name":"agent","type":"address","indexed":true,"internalType":"address"},{"name":"name","type":"string","indexed":false,"internalType":"string"}],"anonymous":false},{"type":"event","name":"GameRecorded","inputs":[{"name":"agent","type":"address","indexed":true,"internalType":"address"},{"name":"gameId","type":"bytes32","indexed":true,"internalType":"bytes32"},{"name":"won","type":"bool","indexed":false,"internalType":"bool"},{"name":"wasImpostor","type":"bool","indexed":false,"internalType":"bool"}],"anonymous":false},{"type":"event","name":"StatsUpdated","inputs":[{"name":"agent","type":"address","indexed":true,"internalType":"address"},{"name":"gamesPlayed","type":"uint64","indexed":false,"internalType":"uint64"},{"name":"wins","type":"uint64","indexed":false,"internalType":"uint64"}],"anonymous":false}],"bytecode":{"object":"0x60808060405234610027575f80546001600160a01b0319163317905561181e908161002c8239f35b5f80fdfe60806040526004361015610011575f80fd5b5f803560e01c80630ac277db14610e4a57806322b833d814610e045780632d1b2c0614610db557806332fb035c14610d8c578063365f349d146109885780633731a16f1461096a5780634ba8c8ba1461091b5780635c492129146108fd57806384da92a71461076157806384df5d8414610738578063860e4ac6146106a05780638da5cb5b14610679578063914a1e761461064d578063b1e29ea4146103fc578063b5695b38146102df578063c3c5a547146102a0578063e0bb12f71461025c578063f2fde38b146101da5763fd66091e146100eb575f80fd5b346101d75760203660031901126101d757610150906040906001600160a01b03610113610eef565b16815260036020522061012581611082565b90600181015460028201549160046003820154910154906040519586956101a0808852870190610f72565b936001600160401b03938481166020880152848160401c166040880152848160801c16606088015260c01c608087015283811660a0870152838160401c1660c0870152838160801c1660e087015260c01c6101008601526001600160801b03811661012086015260801c61014085015281811661016085015260401c166101808301520390f35b80fd5b50346101d75760203660031901126101d7576101f4610eef565b8154906001600160a01b039061020d33838516146117af565b16908115610225576001600160a01b03191617815580f35b60405162461bcd60e51b815260206004820152600f60248201526e496e76616c6964206164647265737360881b6044820152606490fd5b50346101d75760203660031901126101d757600435906005548210156101d757602061028783610fb0565b905460405160039290921b1c6001600160a01b03168152f35b50346101d75760203660031901126101d75760209060ff906040906001600160a01b036102cb610eef565b168152600484522054166040519015158152f35b50346101d75760203660031901126101d7576103de906040906001600160a01b03610308610eef565b16815260036020522060405161031d81611031565b61032682611082565b9182825260018101546001600160401b039081811693846020820152828260401c1690816040820152610180848460801c169384606084015260c01c94856080840152600460028801549782891660a0860152828960401c16988960c0870152838160801c1660e087015260c01c61010086015260038101546001600160801b03811661012087015260801c610140860152015481811661016085015260401c1691015260405196879660c0885260c0880190610f72565b94602087015260408601526060850152608084015260a08301520390f35b50346101d75760208060031936011261064957600554906004358281101561064257915b61042983611769565b9161043384611752565b926104416040519485611061565b84845261044d85611752565b84830190601f190136823761046184611769565b93875b818110610614575050865b845181108061060b575b156105ad57600180820180831161059957815b6104f1575b506104ec91906001600160401b03906001600160a01b03806104b3858b61179b565b51166104bf858961179b565b526104ca848a61179b565b51168b526003875260408b20015460401c166104e6828961179b565b52611628565b61046f565b86518110156105945761055882918b898685604060018060a01b039485610518888761179b565b511681528d600390818152876105406001600160401b039788888888200154881c169961179b565b511683525220015460401c161061055e575b50611628565b9061048c565b80610569878c61179b565b511690610576838c61179b565b5116610582878c61179b565b5261058d828b61179b565b525f610552565b610491565b634e487b7160e01b8a52601160045260248afd5b50906105cb9187868580604051968796604088526040880190610f36565b928684038288015251928381520193925b8281106105eb57505050500390f35b83516001600160401b0316855286955093810193928101926001016105dc565b50868110610479565b8061062161063d92610fb0565b905460039190911b1c6001600160a01b03166104e6828961179b565b610464565b5081610420565b5080fd5b50346101d75760203660031901126101d757602061067161066c610eef565b611636565b604051908152f35b50346101d757806003193601126101d757546040516001600160a01b039091168152602090f35b50346101d757806003193601126101d757604051809182600554808452602080940190600584527f036b6384b5eca791c62761152d0c79bb0604c104a5fb6f4eb0703f3154bb3db0935b858282106107195750505061070192500383611061565b610715604051928284938452830190610f36565b0390f35b85546001600160a01b03168452600195860195889550930192016106ea565b50346101d757806003193601126101d7576002546040516001600160a01b039091168152602090f35b50346101d757602090816003193601126101d7576001600160401b036004358181116108f957610795903690600401610f09565b903384526004855260ff604085205416156108c3578115610887573384526003855260408420928211610873576107d6826107d08554610ff9565b85611123565b8394601f8311600114610811575093839482939492610806575b50508160011b915f199060031b1c191617905580f35b013590505f806107f0565b90601f198316958486528286209286905b88821061085b57505083600195969710610842575b505050811b01905580f35b01355f19600384901b60f8161c191690555f8080610837565b80600184968294958701358155019501920190610822565b634e487b7160e01b84526041600452602484fd5b60405162461bcd60e51b81526004810186905260146024820152734e616d652063616e6e6f7420626520656d70747960601b6044820152606490fd5b60405162461bcd60e51b815260048101869052600e60248201526d139bdd081c9959da5cdd195c995960921b6044820152606490fd5b8280fd5b50346101d757806003193601126101d7576020600654604051908152f35b50346101d75760203660031901126101d757610935610eef565b81546001600160a01b03919061094e90831633146117af565b166bffffffffffffffffffffffff60a01b600254161760025580f35b50346101d757806003193601126101d7576020600554604051908152f35b50346101d7576101003660031901126101d7576109a3610eef565b60443515156044350361064957606435151560643503610649576001600160401b036084351660843503610649576001600160401b0360a4351660a43503610649576001600160801b0360c4351660c43503610649576001600160801b0360e4351660e43503610649576001546001600160a01b031633148015610d78575b8015610d65575b610a3290611589565b6001600160a01b03811682526004602052604082205460ff1615610cd2575b6001600160a01b0381168252600360205260408083206001810180547f64e87b1dff5b253607158203011b45b2d113542b97af093402cc964c74e2c4e99392906001600160401b03610aa48183166115c6565b16906001600160401b031916178255610ac96001600160401b03421660048301611176565b60443515610c5557610aef610ae96001600160401b038454861c166115c6565b83611176565b6003810180546001600160801b03610b0b60c4358284166115f2565b16906001600160801b0319161790555b60643515610c1b576002610b689101610b406001600160401b03825460801c166115c6565b815467ffffffffffffffff60801b191660809190911b67ffffffffffffffff60801b16179055565b610b9b610b7b608435835460c01c61160d565b82546001600160c01b031660c09190911b6001600160c01b031916178255565b610ba6600654611628565b60065581516044351515815260643515156020820152602435906001600160a01b038616907fd179e19dfbea77119f33340426c612af27e6b5bca3cd730ed8f013615fc542d0908590a35481516001600160401b03808316825291831c90911660208201526001600160a01b0390931692a280f35b6002610c509101610c32610b7b825460c01c6115c6565b610c4a60a4356001600160401b038354871c1661160d565b90611176565b610b9b565b610c96610c6e6001600160401b03845460801c166115c6565b835467ffffffffffffffff60801b191660809190911b67ffffffffffffffff60801b16178355565b610ccd60038201610cad60e435825460801c6115f2565b81546001600160801b031660809190911b6001600160801b031916179055565b610b1b565b90303b156101d75760408051630457067b60e31b81526001600160a01b0384166004820152602481019190915260056044820152641059d95b9d60da1b6064820152818160848183305af18015610d5a57610d2f575b5090610a51565b6001600160401b038111610d46576040525f610d28565b634e487b7160e01b82526041600452602482fd5b6040513d84823e3d90fd5b5081546001600160a01b03163314610a29565b506002546001600160a01b03163314610a22565b50346101d757806003193601126101d7576001546040516001600160a01b039091168152602090f35b50346101d75760203660031901126101d757610dcf610eef565b81546001600160a01b039190610de890831633146117af565b166bffffffffffffffffffffffff60a01b600154161760015580f35b50346101d75760403660031901126101d757610e1e610eef565b602435906001600160401b0382116108f957610e41610e47923690600401610f09565b9161119e565b80f35b50346101d75760203660031901126101d757610e64610eef565b6001546001600160a01b039190821633148015610ee2575b8015610ed6575b610e8c90611589565b168152600460205260ff604082205416610ea35780f35b60036020526002604082200180546001600160401b03610ec48183166115c6565b16906001600160401b03191617905580f35b50825482163314610e83565b5081600254163314610e7c565b600435906001600160a01b0382168203610f0557565b5f80fd5b9181601f84011215610f05578235916001600160401b038311610f055760208381860195010111610f0557565b9081518082526020808093019301915f5b828110610f55575050505090565b83516001600160a01b031685529381019392810192600101610f47565b91908251928382525f5b848110610f9c575050825f602080949584010152601f8019910116010190565b602081830181015184830182015201610f7c565b600554811015610fe55760055f527f036b6384b5eca791c62761152d0c79bb0604c104a5fb6f4eb0703f3154bb3db001905f90565b634e487b7160e01b5f52603260045260245ffd5b90600182811c92168015611027575b602083101461101357565b634e487b7160e01b5f52602260045260245ffd5b91607f1691611008565b6101a081019081106001600160401b0382111761104d57604052565b634e487b7160e01b5f52604160045260245ffd5b90601f801991011681019081106001600160401b0382111761104d57604052565b9060405191825f82549261109584610ff9565b9081845260019485811690815f1461110057506001146110c0575b50506110be92500383611061565b565b909391505f52602090815f20935f915b8183106110e85750506110be93508201015f806110b0565b855488840185015294850194879450918301916110d0565b9150506110be94506020925060ff191682840152151560051b8201015f806110b0565b90601f811161113157505050565b5f91825260208220906020601f850160051c8301941061116c575b601f0160051c01915b82811061116157505050565b818155600101611155565b909250829061114c565b9067ffffffffffffffff60401b82549160401b169067ffffffffffffffff60401b1916179055565b9160018060a01b0383165f52600460205260ff60405f20541661158457801561154e576001600160401b03811161104d57604051916111e7601f8301601f191660200184611061565b8183523682820111610f0557815f926020928386013783010152905b60405161120f81611031565b8281525f60208201525f60408201525f60608201525f60808201525f60a08201525f60c08201525f60e08201525f6101008201525f6101208201525f6101408201526001600160401b0342166101608201525f61018082015260018060a01b0382165f52600360205260405f2081518051906001600160401b03821161104d5761129d826107d08554610ff9565b602090601f83116001146114d65761141d9493836001600160401b0394610180946004945f926114cb575b50508160011b915f199060031b1c19161781555b8360208601511684196001830154161760018201556113048460408701511660018301611176565b606085015160018201805467ffffffffffffffff60801b191691861660801b67ffffffffffffffff60801b1691909117905560808501516001820180546001600160c01b031691861660c01b6001600160c01b0319169190911790556113d7600282018560a08801511686198254161781556113868660c08901511682611176565b60e0870151815467ffffffffffffffff60801b191690871660801b67ffffffffffffffff60801b1617815561010087015181546001600160c01b031690871660c01b6001600160c01b031916179055565b61012085015161014086015160801b6001600160801b0319166001600160801b039190911617600382015501928261016082015116831985541617845501511690611176565b6001600160a01b0381165f908152600460205260409020805460ff191660011790556005546801000000000000000081101561104d577fda816ca2fc37b9eecec62ae8263008ec6be1afb38dc28bc9c7c51d7e348da9c2916114888260016114c69401600555610fb0565b81549060031b9060018060a01b038416821b9160018060a01b03901b19161790556040519182916020835260018060a01b0316946020830190610f72565b0390a2565b015190505f806112c8565b90835f5260205f20915f5b601f19851681106115365750936001846101809460049461141d99986001600160401b0398601f1981161061151e575b505050811b0181556112dc565b01515f1960f88460031b161c191690555f8080611511565b919260206001819286850151815501940192016114e1565b5050604051604081018181106001600160401b0382111761104d5760405260058152641059d95b9d60da1b602082015290611203565b505050565b1561159057565b60405162461bcd60e51b815260206004820152600e60248201526d139bdd08185d5d1a1bdc9a5e995960921b6044820152606490fd5b6001600160401b038091169081146115de5760010190565b634e487b7160e01b5f52601160045260245ffd5b9190916001600160801b03808094169116019182116115de57565b9190916001600160401b03808094169116019182116115de57565b5f1981146115de5760010190565b6001600160a01b03165f9081526003602052604080822081519061165982611031565b61166281611082565b82526001810154926001600160401b0392610180848087169360046020850196868852838a841c16998a84880152848160801c16606088015260c01c6080870152600281015484811660a08801528481851c1660c0880152848160801c1660e088015260c01c61010087015260038101546001600160801b03811661012088015260801c6101408701520154908282166101608601521c169101521561174c576127109283810293818504149015171561173857511691821561172457500490565b634e487b7160e01b81526012600452602490fd5b634e487b7160e01b84526011600452602484fd5b50505090565b6001600160401b03811161104d5760051b60200190565b9061177382611752565b6117806040519182611061565b8281528092611791601f1991611752565b0190602036910137565b8051821015610fe55760209160051b010190565b156117b657565b60405162461bcd60e51b815260206004820152600a60248201526927b7363c9037bbb732b960b11b6044820152606490fdfea26469706673582212203a3ecd8a5f3dc7fcf2359ff6dac35300850d1b1f4b30d41f315a91f6f543676e64736f6c63430008140033","linkReferences":{}},"methodIdentifiers":{"agents(address)":"fd66091e","allAgents(uint256)":"e0bb12f7","gameSettlement()":"32fb035c","getAgentStats(address)":"b5695b38","getAllAgents()":"860e4ac6","getTopAgents(uint256)":"b1e29ea4","getTotalAgents()":"3731a16f","getWinRate(address)":"914a1e76","isRegistered(address)":"c3c5a547","owner()":"8da5cb5b","recordDeath(address)":"0ac277db","recordGameResult(address,bytes32,bool,bool,uint64,uint64,uint128,uint128)":"365f349d","registerAgent(address,string)":"22b833d8","setGameSettlement(address)":"2d1b2c06","setWagerVault(address)":"4ba8c8ba","totalGamesPlayed()":"5c492129","transferOwnership(address)":"f2fde38b","updateName(string)":"84da92a7","wagerVault()":"84df5d84"},"id":16}