{"abi":[{"type":"constructor","inputs":[],"stateMutability":"nonpayable"},{"type":"function","name":"INITIAL_RATING","inputs":[],"outputs":[{"name":"","type":"uint256","internalType":"uint256"}],"stateMutability":"view"},{"type":"function","name":"K_FACTOR","inputs":[],"outputs":[{"name":"","type":"uint256","internalType":"uint256"}],"stateMutability":"view"},{"type":"function","name":"LEADERBOARD_SIZE","inputs":[],"outputs":[{"name":"","type":"uint256","internalType":"uint256"}],"stateMutability":"view"},{"type":"function","name":"agentList","inputs":[{"name":"","type":"uint256","internalType":"uint256"}],"outputs":[{"name":"","type":"address","internalType":"address"}],"stateMutability":"view"},{"type":"function","name":"agents","inputs":[{"name":"","type":"address","internalType":"address"}],"outputs":[{"name":"agentAddress","type":"address","internalType":"address"},{"name":"gamesPlayed","type":"uint256","internalType":"uint256"},{"name":"gamesWon","type":"uint256","internalType":"uint256"},{"name":"gamesAsCrewmate","type":"uint256","internalType":"uint256"},{"name":"gamesAsImpostor","type":"uint256","internalType":"uint256"},{"name":"crewmateWins","type":"uint256","internalType":"uint256"},{"name":"impostorWins","type":"uint256","internalType":"uint256"},{"name":"totalKills","type":"uint256","internalType":"uint256"},{"name":"tasksCompleted","type":"uint256","internalType":"uint256"},{"name":"correctAccusations","type":"uint256","internalType":"uint256"},{"name":"timesEjected","type":"uint256","internalType":"uint256"},{"name":"rating","type":"uint256","internalType":"uint256"},{"name":"registeredAt","type":"uint256","internalType":"uint256"},{"name":"lastGameAt","type":"uint256","internalType":"uint256"},{"name":"isActive","type":"bool","internalType":"bool"}],"stateMutability":"view"},{"type":"function","name":"checkRegistered","inputs":[{"name":"_agent","type":"address","internalType":"address"}],"outputs":[{"name":"","type":"bool","internalType":"bool"}],"stateMutability":"view"},{"type":"function","name":"factory","inputs":[],"outputs":[{"name":"","type":"address","internalType":"address"}],"stateMutability":"view"},{"type":"function","name":"getAgentRank","inputs":[{"name":"_agent","type":"address","internalType":"address"}],"outputs":[{"name":"","type":"uint256","internalType":"uint256"}],"stateMutability":"view"},{"type":"function","name":"getAgentStats","inputs":[{"name":"_agent","type":"address","internalType":"address"}],"outputs":[{"name":"","type":"tuple","internalType":"struct AgentRegistry.AgentStats","components":[{"name":"agentAddress","type":"address","internalType":"address"},{"name":"gamesPlayed","type":"uint256","internalType":"uint256"},{"name":"gamesWon","type":"uint256","internalType":"uint256"},{"name":"gamesAsCrewmate","type":"uint256","internalType":"uint256"},{"name":"gamesAsImpostor","type":"uint256","internalType":"uint256"},{"name":"crewmateWins","type":"uint256","internalType":"uint256"},{"name":"impostorWins","type":"uint256","internalType":"uint256"},{"name":"totalKills","type":"uint256","internalType":"uint256"},{"name":"tasksCompleted","type":"uint256","internalType":"uint256"},{"name":"correctAccusations","type":"uint256","internalType":"uint256"},{"name":"timesEjected","type":"uint256","internalType":"uint256"},{"name":"rating","type":"uint256","internalType":"uint256"},{"name":"registeredAt","type":"uint256","internalType":"uint256"},{"name":"lastGameAt","type":"uint256","internalType":"uint256"},{"name":"isActive","type":"bool","internalType":"bool"}]}],"stateMutability":"view"},{"type":"function","name":"getAllAgents","inputs":[],"outputs":[{"name":"","type":"address[]","internalType":"address[]"}],"stateMutability":"view"},{"type":"function","name":"getLeaderboard","inputs":[],"outputs":[{"name":"","type":"address[]","internalType":"address[]"}],"stateMutability":"view"},{"type":"function","name":"getRating","inputs":[{"name":"_agent","type":"address","internalType":"address"}],"outputs":[{"name":"","type":"uint256","internalType":"uint256"}],"stateMutability":"view"},{"type":"function","name":"getTopAgents","inputs":[{"name":"_count","type":"uint256","internalType":"uint256"}],"outputs":[{"name":"","type":"address[]","internalType":"address[]"},{"name":"","type":"uint256[]","internalType":"uint256[]"}],"stateMutability":"view"},{"type":"function","name":"getTotalAgents","inputs":[],"outputs":[{"name":"","type":"uint256","internalType":"uint256"}],"stateMutability":"view"},{"type":"function","name":"getWinRate","inputs":[{"name":"_agent","type":"address","internalType":"address"}],"outputs":[{"name":"","type":"uint256","internalType":"uint256"}],"stateMutability":"view"},{"type":"function","name":"isRegistered","inputs":[{"name":"","type":"address","internalType":"address"}],"outputs":[{"name":"","type":"bool","internalType":"bool"}],"stateMutability":"view"},{"type":"function","name":"leaderboard","inputs":[{"name":"","type":"uint256","internalType":"uint256"}],"outputs":[{"name":"","type":"address","internalType":"address"}],"stateMutability":"view"},{"type":"function","name":"recordDetailedStats","inputs":[{"name":"_agent","type":"address","internalType":"address"},{"name":"_wasImpostor","type":"bool","internalType":"bool"},{"name":"_won","type":"bool","internalType":"bool"},{"name":"_kills","type":"uint256","internalType":"uint256"},{"name":"_tasksCompleted","type":"uint256","internalType":"uint256"},{"name":"_correctAccusations","type":"uint256","internalType":"uint256"},{"name":"_wasEjected","type":"bool","internalType":"bool"}],"outputs":[],"stateMutability":"nonpayable"},{"type":"function","name":"recordGameResult","inputs":[{"name":"_agent","type":"address","internalType":"address"},{"name":"_won","type":"bool","internalType":"bool"}],"outputs":[],"stateMutability":"nonpayable"},{"type":"function","name":"registerAgent","inputs":[{"name":"_agent","type":"address","internalType":"address"}],"outputs":[],"stateMutability":"nonpayable"},{"type":"event","name":"AgentRegistered","inputs":[{"name":"agent","type":"address","indexed":true,"internalType":"address"},{"name":"timestamp","type":"uint256","indexed":false,"internalType":"uint256"}],"anonymous":false},{"type":"event","name":"GameResultRecorded","inputs":[{"name":"agent","type":"address","indexed":true,"internalType":"address"},{"name":"won","type":"bool","indexed":false,"internalType":"bool"},{"name":"newRating","type":"uint256","indexed":false,"internalType":"uint256"}],"anonymous":false},{"type":"event","name":"LeaderboardUpdated","inputs":[{"name":"agent","type":"address","indexed":true,"internalType":"address"},{"name":"rank","type":"uint256","indexed":false,"internalType":"uint256"}],"anonymous":false},{"type":"event","name":"RatingUpdated","inputs":[{"name":"agent","type":"address","indexed":true,"internalType":"address"},{"name":"oldRating","type":"uint256","indexed":false,"internalType":"uint256"},{"name":"newRating","type":"uint256","indexed":false,"internalType":"uint256"}],"anonymous":false}],"bytecode":{"object":"0x60808060405234610027575f80546001600160a01b0319163317905561139b908161002c8239f35b5f80fdfe6080806040526004361015610012575f80fd5b5f3560e01c9081632f80c54f14610e7757508063306b9bb914610bee5780633731a16f14610bd15780633cd2ff4b146108ba57806341296d2e146108975780634f085f421461087c5780636d763a6e146107fe57806377519b73146107e45780637c2b86dc146107c857806380fc9c0e1461078d5780638604e59614610671578063860e4ac6146105db578063914a1e76146105b0578063b1e29ea41461046a578063b5695b3814610280578063bf3683991461023e578063c3c5a547146101da578063c45a015514610217578063ee2574af146101da5763fd66091e146100f8575f80fd5b346101d65760203660031901126101d6576001600160a01b038061011a610f04565b165f52600160205260405f2090815416600182015491600281015460038201546004830154600584015460068501546007860154600887015491600988015493600a89015495600b8a015497600c8b015499600d8c01549b600e015460ff169c6040519e8f91825260208201526040015260608d015260808c015260a08b015260c08a015260e08901526101008801526101208701526101408601526101608501526101808401526101a083015215156101c08201526101e090f35b5f80fd5b346101d65760203660031901126101d6576001600160a01b036101fb610f04565b165f526003602052602060ff60405f2054166040519015158152f35b346101d6575f3660031901126101d6575f546040516001600160a01b039091168152602090f35b346101d65760203660031901126101d6576004356004548110156101d657610267602091610ecf565b905460405160039290921b1c6001600160a01b03168152f35b346101d65760203660031901126101d657610299610f04565b5f6101c06040516102a981610fa0565b8281528260208201528260408201528260608201528260808201528260a08201528260c08201528260e08201528261010082015282610120820152826101408201528261016082015282610180820152826101a0820152015260018060a01b03165f5260016020526101e060405f206101c060405161032781610fa0565b60ff600e60018060a01b038554169485845260018101546020850152600281015460408501526003810154606085015260048101546080850152600581015460a0850152600681015460c0850152600781015460e085015260088101546101008501526009810154610120850152600a810154610140850152600b810154610160850152600c810154610180850152600d8101546101a08501520154161515828201526040519283526020810151602084015260408101516040840152606081015160608401526080810151608084015260a081015160a084015260c081015160c084015260e081015160e08401526101008101516101008401526101208101516101208401526101408101516101408401526101608101516101608401526101808101516101808401526101a08101516101a0840152015115156101c0820152f35b346101d6576020806003193601126101d657600480549035818111156105a85750905b61049682611155565b906104a46040519283610fbd565b828252601f1990816104b585611155565b0136828501376104c484611155565b936104d26040519586610fbd565b8085526104de81611155565b85830193013684375f5b81811061054257505061050a9381604051958695604087526040870190610f29565b918583038287015251918281520192915f5b82811061052b57505050500390f35b83518552869550938101939281019260010161051c565b8061055361059f9297959697610ecf565b90546001600160a01b039160039190821b1c8216610571848b61116d565b5261057b83610ecf565b9054911b1c165f5260018452600b60405f200154610599828761116d565b52611022565b949392946104e8565b90509061048d565b346101d65760203660031901126101d65760206105d36105ce610f04565b61103d565b604051908152f35b346101d6575f3660031901126101d6576040518060025480825282602080930160025f527f405787fa12a823e0f2b7631cc41b3ba8828b3321ca811111fa75cd3aa3bb5ace925f5b858282106106525750505061063a92500383610fbd565b61064e604051928284938452830190610f29565b0390f35b85546001600160a01b0316845260019586019588955093019201610623565b346101d65760e03660031901126101d65761068a610f04565b610692610f1a565b9060443580151581036101d65760c4359182151583036101d6575f546001600160a01b0391906106c59083163314610f65565b16805f5260036020526106de60ff60405f205416610fdf565b5f52600160205260405f20925f1461075757600483016106fe8154611022565b9055600783016107116064358254611030565b9055610742575b6009820161072960a4358254611030565b905561073157005b600a0161073e8154611022565b9055005b600682016107508154611022565b9055610718565b600383016107658154611022565b9055600883016107786084358254611030565b90551561071857600582016107508154611022565b346101d65760203660031901126101d6576001600160a01b036107ae610f04565b165f5260016020526020600b60405f200154604051908152f35b346101d6575f3660031901126101d65760206040516103e88152f35b346101d6575f3660031901126101d6576020604051818152f35b346101d6575f3660031901126101d6576040518060045480825282602080930160045f527f8a35acfbc15ff81a39ae7d344fd709f28e8600b4aa8c65c6b64bfe7fe36bd19b925f5b8582821061085d5750505061063a92500383610fbd565b85546001600160a01b0316845260019586019588955093019201610846565b346101d6575f3660031901126101d657602060405160648152f35b346101d65760203660031901126101d65760206105d36108b5610f04565b611181565b346101d65760403660031901126101d6576108d3610f04565b6108db610f1a565b5f546001600160a01b0391906108f49083163314610f65565b81831692835f5260039260209184835261091460ff60405f205416610fdf565b855f52600191828452867f1c8efa8a20f831bf92a934bf3f6b2275338ba18b008fac6768925c20b481f1756040805f20978689016109528154611022565b90558042600d8b0155610bbc575b600b80990161097082825461120d565b8091558251911515825288820152a2865f528284528460405f200154955f19965f90600454915b828110610b8f575b5081975f5b838110610b4d575b50505050909192865f829697981215610ae5575b5050606486106109cc57005b60646004541015610ad8575b600454600160401b811015610ac45780856109f69201600455610ecf565b83825491841b1b191690556004545f198101908111610a7a575b868111610a8e57505050610a4690610a2785610ecf565b90919082549060031b9160018060a01b03809116831b921b1916179055565b8201809211610a7a577f24e225604268d6416871b32db1be8e49f497caf8360393b31d71a34a4ce2669391604051908152a2005b634e487b7160e01b5f52601160045260245ffd5b5f198101818111610a7a5783610aa6610ab692610ecf565b905490851b1c16610a2783610ecf565b8015610a7a575f1901610a10565b634e487b7160e01b5f52604160045260245ffd5b610ae0611324565b6109d8565b905b610afc575b50610af5611324565b83886109c0565b6004545f198101908111610a7a57811015610b4857848101808211610a7a578591610b3d85610b2d610b4294610ecf565b905490871b1c16610a2783610ecf565b611022565b90610ae7565b610aec565b85610b5782610ecf565b905490871b1c165f528789528160405f2001548311610b7e57610b7990611022565b6109a4565b98508692508b9150819050806109ac565b8a85610b9a83610ecf565b905490871b1c1614610bb457610baf90611022565b610997565b98508a61099f565b60028901610bca8154611022565b9055610960565b346101d6575f3660031901126101d6576020600254604051908152f35b346101d65760203660031901126101d657610c07610f04565b610c1b60018060a01b035f54163314610f65565b6001600160a01b0381165f9081526003602052604090205460ff16610e3d57604051610c4681610fa0565b60018060a01b03821681525f60208201525f60408201525f60608201525f60808201525f60a08201525f60c08201525f60e08201525f6101008201525f6101208201525f6101408201526103e8610160820152426101808201525f6101a082015260016101c082015260018060a01b0382165f5260016020526101c0600e60405f2060018060a01b038451166bffffffffffffffffffffffff60a01b8254161781556020840151600182015560408401516002820155606084015160038201556080840151600482015560a0840151600582015560c0840151600682015560e0840151600782015561010084015160088201556101208401516009820155610140840151600a820155610160840151600b820155610180840151600c8201556101a0840151600d8201550191015115159060ff199160ff838354169116179055600254600160401b811015610ac4576001810180600255811015610e29577f405787fa12a823e0f2b7631cc41b3ba8828b3321ca811111fa75cd3aa3bb5ace0180546001600160a01b0319166001600160a01b039390931692831790555f828152600360209081526040918290208054909316600117909255514281527fd1b844701695237443dd884ed7193d9c8788f3befd35adc0910472eb166f33069190a2005b634e487b7160e01b5f52603260045260245ffd5b60405162461bcd60e51b8152602060048201526012602482015271105b1c9958591e481c9959da5cdd195c995960721b6044820152606490fd5b346101d65760203660031901126101d657600435906002548210156101d65760025f527f405787fa12a823e0f2b7631cc41b3ba8828b3321ca811111fa75cd3aa3bb5ace909101546001600160a01b03168152602090f35b600454811015610e295760045f527f8a35acfbc15ff81a39ae7d344fd709f28e8600b4aa8c65c6b64bfe7fe36bd19b01905f90565b600435906001600160a01b03821682036101d657565b6024359081151582036101d657565b9081518082526020808093019301915f5b828110610f48575050505090565b83516001600160a01b031685529381019392810192600101610f3a565b15610f6c57565b60405162461bcd60e51b815260206004820152600c60248201526b4f6e6c7920666163746f727960a01b6044820152606490fd5b6101e0810190811067ffffffffffffffff821117610ac457604052565b90601f8019910116810190811067ffffffffffffffff821117610ac457604052565b15610fe657565b60405162461bcd60e51b81526020600482015260146024820152731059d95b9d081b9bdd081c9959da5cdd195c995960621b6044820152606490fd5b5f198114610a7a5760010190565b91908201809211610a7a57565b60018060a01b03805f92168252600160205260408220906040519061106182610fa0565b8254168152600182015460208201918183526101c060ff600e6002870154968760408601526003810154606086015260048101546080860152600581015460a0860152600681015460c0860152600781015460e086015260088101546101008601526009810154610120860152600a810154610140860152600b810154610160860152600c810154610180860152600d8101546101a0860152015416151591015215611150576127109182810292818404149015171561113c575191821561112857500490565b634e487b7160e01b81526012600452602490fd5b634e487b7160e01b83526011600452602483fd5b505090565b67ffffffffffffffff8111610ac45760051b60200190565b8051821015610e295760209160051b010190565b60048054915f5b83811061119757505050505f90565b6111a081610ecf565b905460039190911b1c6001600160a01b03908116908316146111ca576111c590611022565b611188565b80935060019150018092116111dd575090565b601190634e487b7160e01b5f525260245ffd5b91908203918211610a7a57565b600160ff1b8114610a7a575f0390565b6103e7198101600182821316610a7a5760089061019080821361131c575b5061018f19808212611314575b50059182603201928312600116610a7a578290606480941161130c575b5f9015611304575060ff835b5f929116818111156112c15761127792506111f0565b6001600160fb1b0381168103610a7a57829060051b04905b5f8213156112a4576112a19250611030565b90565b906112ae906111fd565b9080821015611150576112a192506111f0565b6112ca916111f0565b906001600160fb1b03821682036112f05750826112ea9160051b046111fd565b9061128f565b634e487b7160e01b81526011600452602490fd5b60ff90611261565b839150611255565b90505f611238565b90505f61122b565b6004548015611351575f190161133981610ecf565b81549060018060a01b039060031b1b19169055600455565b634e487b7160e01b5f52603160045260245ffdfea26469706673582212204707dc16e81b22cb11a0b091806a30fbeb1e0b26c31066c65980bfddd397e87464736f6c63430008140033","linkReferences":{}},"methodIdentifiers":{"INITIAL_RATING()":"7c2b86dc","K_FACTOR()":"77519b73","LEADERBOARD_SIZE()":"4f085f42","agentList(uint256)":"2f80c54f","agents(address)":"fd66091e","checkRegistered(address)":"ee2574af","factory()":"c45a0155","getAgentRank(address)":"41296d2e","getAgentStats(address)":"b5695b38","getAllAgents()":"860e4ac6","getLeaderboard()":"6d763a6e","getRating(address)":"80fc9c0e","getTopAgents(uint256)":"b1e29ea4","getTotalAgents()":"3731a16f","getWinRate(address)":"914a1e76","isRegistered(address)":"c3c5a547","leaderboard(uint256)":"bf368399","recordDetailedStats(address,bool,bool,uint256,uint256,uint256,bool)":"8604e596","recordGameResult(address,bool)":"3cd2ff4b","registerAgent(address)":"306b9bb9"},"id":0}