{"abi":[{"type":"constructor","inputs":[{"name":"_wagerVault","type":"address","internalType":"address"},{"name":"_agentRegistry","type":"address","internalType":"address"}],"stateMutability":"nonpayable"},{"type":"function","name":"agentRegistry","inputs":[],"outputs":[{"name":"","type":"address","internalType":"contract AgentRegistry"}],"stateMutability":"view"},{"type":"function","name":"allGameIds","inputs":[{"name":"","type":"uint256","internalType":"uint256"}],"outputs":[{"name":"","type":"bytes32","internalType":"bytes32"}],"stateMutability":"view"},{"type":"function","name":"cancelGame","inputs":[{"name":"gameId","type":"bytes32","internalType":"bytes32"}],"outputs":[],"stateMutability":"nonpayable"},{"type":"function","name":"createGame","inputs":[{"name":"gameId","type":"bytes32","internalType":"bytes32"},{"name":"players","type":"address[]","internalType":"address[]"},{"name":"impostors","type":"address[]","internalType":"address[]"}],"outputs":[],"stateMutability":"nonpayable"},{"type":"function","name":"games","inputs":[{"name":"","type":"bytes32","internalType":"bytes32"}],"outputs":[{"name":"gameId","type":"bytes32","internalType":"bytes32"},{"name":"createdAt","type":"uint64","internalType":"uint64"},{"name":"settledAt","type":"uint64","internalType":"uint64"},{"name":"status","type":"uint8","internalType":"enum GameSettlement.GameStatus"},{"name":"crewmatesWon","type":"bool","internalType":"bool"}],"stateMutability":"view"},{"type":"function","name":"getGame","inputs":[{"name":"gameId","type":"bytes32","internalType":"bytes32"}],"outputs":[{"name":"players","type":"address[]","internalType":"address[]"},{"name":"impostors","type":"address[]","internalType":"address[]"},{"name":"createdAt","type":"uint64","internalType":"uint64"},{"name":"settledAt","type":"uint64","internalType":"uint64"},{"name":"status","type":"uint8","internalType":"enum GameSettlement.GameStatus"},{"name":"crewmatesWon","type":"bool","internalType":"bool"}],"stateMutability":"view"},{"type":"function","name":"getGameStatus","inputs":[{"name":"gameId","type":"bytes32","internalType":"bytes32"}],"outputs":[{"name":"","type":"uint8","internalType":"enum GameSettlement.GameStatus"}],"stateMutability":"view"},{"type":"function","name":"getTotalGames","inputs":[],"outputs":[{"name":"created","type":"uint256","internalType":"uint256"},{"name":"settled","type":"uint256","internalType":"uint256"}],"stateMutability":"view"},{"type":"function","name":"operator","inputs":[],"outputs":[{"name":"","type":"address","internalType":"address"}],"stateMutability":"view"},{"type":"function","name":"owner","inputs":[],"outputs":[{"name":"","type":"address","internalType":"address"}],"stateMutability":"view"},{"type":"function","name":"setAgentRegistry","inputs":[{"name":"_agentRegistry","type":"address","internalType":"address"}],"outputs":[],"stateMutability":"nonpayable"},{"type":"function","name":"setOperator","inputs":[{"name":"_operator","type":"address","internalType":"address"}],"outputs":[],"stateMutability":"nonpayable"},{"type":"function","name":"setWagerVault","inputs":[{"name":"_wagerVault","type":"address","internalType":"address"}],"outputs":[],"stateMutability":"nonpayable"},{"type":"function","name":"settleGame","inputs":[{"name":"gameId","type":"bytes32","internalType":"bytes32"},{"name":"crewmatesWon","type":"bool","internalType":"bool"},{"name":"winners","type":"address[]","internalType":"address[]"},{"name":"playerKills","type":"uint64[]","internalType":"uint64[]"},{"name":"playerTasks","type":"uint64[]","internalType":"uint64[]"}],"outputs":[],"stateMutability":"nonpayable"},{"type":"function","name":"totalGamesCreated","inputs":[],"outputs":[{"name":"","type":"uint256","internalType":"uint256"}],"stateMutability":"view"},{"type":"function","name":"totalGamesSettled","inputs":[],"outputs":[{"name":"","type":"uint256","internalType":"uint256"}],"stateMutability":"view"},{"type":"function","name":"transferOwnership","inputs":[{"name":"newOwner","type":"address","internalType":"address"}],"outputs":[],"stateMutability":"nonpayable"},{"type":"function","name":"wagerVault","inputs":[],"outputs":[{"name":"","type":"address","internalType":"contract WagerVault"}],"stateMutability":"view"},{"type":"event","name":"GameCancelled","inputs":[{"name":"gameId","type":"bytes32","indexed":true,"internalType":"bytes32"}],"anonymous":false},{"type":"event","name":"GameCreated","inputs":[{"name":"gameId","type":"bytes32","indexed":true,"internalType":"bytes32"},{"name":"playerCount","type":"uint256","indexed":false,"internalType":"uint256"},{"name":"impostorCount","type":"uint256","indexed":false,"internalType":"uint256"}],"anonymous":false},{"type":"event","name":"GameSettled","inputs":[{"name":"gameId","type":"bytes32","indexed":true,"internalType":"bytes32"},{"name":"crewmatesWon","type":"bool","indexed":false,"internalType":"bool"},{"name":"winnerCount","type":"uint256","indexed":false,"internalType":"uint256"}],"anonymous":false},{"type":"event","name":"OperatorUpdated","inputs":[{"name":"newOperator","type":"address","indexed":true,"internalType":"address"}],"anonymous":false}],"bytecode":{"object":"0x60803461009a57601f61141a38819003918201601f19168301916001600160401b0383118484101761009e57808492604094855283398101031261009a57610052602061004b836100b2565b92016100b2565b9060018060a01b03199133835f5416175f553383600154161760015560018060a01b038092168360025416176002551690600354161760035560405161135390816100c78239f35b5f80fd5b634e487b7160e01b5f52604160045260245ffd5b51906001600160a01b038216820361009a5756fe6080806040526004361015610012575f80fd5b5f3560e01c9081630d1cfcae14610faa57508063146c638d14610f705780632517e2f914610f5357806328342ecf14610f095780633d06308014610ac75780633f7121b01461097f5780634ba8c8ba14610935578063570ca7351461090d5780635a5cfc1c146108d65780635bd4349b146108b257806373931bbf146107b957806384df5d84146107915780638da5cb5b1461076a5780638dbb15bb1461074d578063b3ab15fb146106e0578063d5a35f85146101c7578063f2fde38b1461014f5763f579f882146100e2575f80fd5b3461014b57602036600319011261014b576004355f52600460205260a060405f2060ff600382549201546040519283526001600160401b0380821660208501528160401c16604084015261013e60608401838360801c16610fcd565b60881c1615156080820152f35b5f80fd5b3461014b57602036600319011261014b57610168610fda565b5f54906001600160a01b039061018133838516146112e4565b16908115610198576001600160a01b031916175f55005b60405162461bcd60e51b8152602060048201526007602482015266125b9d985b1a5960ca1b6044820152606490fd5b3461014b57606036600319011261014b576024356001600160401b03811161014b576101f7903690600401611004565b9060449081356001600160401b03811161014b57610219903690600401611004565b9260018060a01b0360015416331480156106cd575b610237906110b9565b6004355f52600460205260ff600360405f20015460801c1660048110156104ad5761069b5760048510610665578315610630576002546001600160a01b0316905f5b86811061054f575050506102b1906102a4604051936102978561114e565b600435855286369161118a565b602084015283369161118a565b60408201526001600160401b03421660608201525f6080820152600160a08201525f60c08201526004355f52600460205260405f208151815560208201518051906001600160401b03821161049957600160401b8211610499576001830154826001850155808310610525575b50602001600183015f5260205f205f5b838110610508575050505060408201518051906001600160401b03821161049957600160401b82116104995760028301548260028501558083106104de575b50602001600283015f5260205f205f5b8381106104c157505050506003016001600160401b036060830151166001600160401b03198254161781556103e26001600160401b03608084015116829067ffffffffffffffff60401b82549160401b169067ffffffffffffffff60401b1916179055565b60a082015160048110156104ad57815460c09093015161ffff60801b1990931660809190911b60ff60801b161791151560881b60ff60881b16919091179055600554600160401b811015610499578060016104409201600555611034565b81549060031b90600435821b915f19901b19161790556104616006546110f5565b60065560405191825260208201527f99007d3126584f2f6e4cdfcf646170362922fd5747a1df30924ac78417be8861604060043592a2005b634e487b7160e01b5f52604160045260245ffd5b634e487b7160e01b5f52602160045260245ffd5b82516001600160a01b03168183015560209092019160010161037d565b600284015f5260205f20908382015b81830181106104fd57505061036d565b5f81556001016104ed565b82516001600160a01b03168183015560209092019160010161032e565b600184015f5260205f20908382015b818301811061054457505061031e565b5f8155600101610534565b61056261055d828988611117565b611127565b604051630ca250b360e31b815260048035908201526001600160a01b0390911660248201526020818481875afa908115610625575f916105ea575b50156105b1576105ac906110f5565b610279565b60405162461bcd60e51b8152602060048201526012602482015271141b185e595c881b9bdd081dd859d95c995960721b81840152606490fd5b90506020813d60201161061d575b8161060560209383611169565b8101031261014b5751801515810361014b578861059d565b3d91506105f8565b6040513d5f823e3d90fd5b6064906d4e65656420696d706f73746f727360901b6040519162461bcd60e51b835260206004840152600e6024840152820152fd5b6064906e4e65656420342b20706c617965727360881b6040519162461bcd60e51b835260206004840152600f6024840152820152fd5b6064906a47616d652065786973747360a81b6040519162461bcd60e51b835260206004840152600b6024840152820152fd5b505f546001600160a01b0316331461022e565b3461014b57602036600319011261014b576106f9610fda565b5f546001600160a01b03919061071290831633146112e4565b16806001600160601b0360a01b60015416176001557fb3b3f5f64ab192e4b5fefde1f51ce9733bbdcf831951543b325aebd49cc27ec45f80a2005b3461014b575f36600319011261014b576020600654604051908152f35b3461014b575f36600319011261014b575f546040516001600160a01b039091168152602090f35b3461014b575f36600319011261014b576002546040516001600160a01b039091168152602090f35b3461014b57602036600319011261014b576004355f52600460205260405f20604051906107e58261114e565b805482526107f5600182016111e8565b60208301908152600361080a600284016111e8565b9260408501938452015460608401916001600160401b039485831684526080810193868460401c16855260ff8460801c169160048310156104ad5787610886986108a9958360ff60c0998860a061089498015260881c16151598899101525198519351169651169160405198899860c08a5260c08a019061107d565b9088820360208a015261107d565b94604087015260608601526080850190610fcd565b60a08301520390f35b3461014b575f36600319011261014b57604060065460075482519182526020820152f35b3461014b57602036600319011261014b5760043560055481101561014b576108ff602091611034565b90546040519160031b1c8152f35b3461014b575f36600319011261014b576001546040516001600160a01b039091168152602090f35b3461014b57602036600319011261014b5761094e610fda565b5f546001600160a01b03919061096790831633146112e4565b166001600160601b0360a01b60025416176002555f80f35b3461014b57602036600319011261014b57600154600435906001600160a01b0390811633148015610abb575b6109b4906110b9565b815f526004602052600360405f200180549060ff8260801c1660048110156104ad5760018114908115610ab2575b5015610a7d5768ffffffffffffffffff60401b199091164260401b67ffffffffffffffff60401b1617600360801b17905560025416803b1561014b575f80916024604051809481936316048ce160e31b83528760048401525af1801561062557610a6e575b507f730d9f4e127b4c1c5d999194f79025fe149736fbb95b0755b18ed20ddd01b4e05f80a2005b610a779061113b565b81610a47565b60405162461bcd60e51b815260206004820152600d60248201526c10d85b9b9bdd0818d85b98d95b609a1b6044820152606490fd5b905015856109e2565b505f54811633146109ab565b3461014b5760a036600319011261014b5760243515156024350361014b576044356001600160401b03811161014b57610b04903690600401611004565b6064356001600160401b03811161014b57610b23903690600401611004565b6084929192356001600160401b03811161014b57610b45903690600401611004565b9360018060a01b036001541633148015610ef6575b610b63906110b9565b6004355f52600460205260405f209460038601549460ff8660801c1660048110156104ad57600103610ebf578015610e8b5768ffffffffffffffffff60401b199095164260401b67ffffffffffffffff60401b1617600160811b17600387015560049460038701805460ff60881b1916602435151560881b60ff60881b1617905560025460405163127791c160e21b81529660209188919082906001600160a01b03165afa958615610625575f96610e57575b505f5b6001880154811015610d7257600188015f908152602090208101546001600160a01b031690610c5382610c4e60028c016111e8565b611253565b91610c5f81858d611299565b6003546001600160a01b03169189841015610d6b57610c87610c82858c8b611117565b61123f565b905b87851015610d6557610c9f610c82868a8d611117565b8315610d5e576001600160801b038d16945b8d8515610d4f57505f955b813b1561014b575f966001600160401b03889481610104986040519d8e9b8c9a63365f349d60e01b8c5260048c015260043560248c0152151560448b0152151560648a01521660848801521660a48601526001600160801b0380921660c48601521660e48401525af191821561062557610d3b92610d40575b506110f5565b610c19565b610d499061113b565b8a610d35565b6001600160801b031695610cbc565b5f94610cb1565b5f610c9f565b5f90610c89565b5060025488906001600160a01b0316803b1561014b57604051809263857ae41960e01b825284604483016004356004850152604060248501525260648201905f5b868110610e2957505091815f81819503925af1801561062557610e1a575b50610ddd6007546110f5565b600755604051906024351515825260208201527fd98ed4acfe0ac4aff15ebc259c6a02018ff79e1a0bed27156c3d8ac550b12c3a604060043592a2005b610e239061113b565b81610dd1565b9092509060019060209081906001600160a01b03610e4687610ff0565b168152019301910190849291610db3565b9095506020813d602011610e83575b81610e7360209383611169565b8101031261014b57519488610c16565b3d9150610e66565b60405162461bcd60e51b815260206004820152600c60248201526b4e6565642077696e6e65727360a01b6044820152606490fd5b60405162461bcd60e51b815260206004820152600f60248201526e47616d65206e6f742061637469766560881b6044820152606490fd5b505f546001600160a01b03163314610b5a565b3461014b57602036600319011261014b57610f22610fda565b5f546001600160a01b039190610f3b90831633146112e4565b166001600160601b0360a01b60035416176003555f80f35b3461014b575f36600319011261014b576020600754604051908152f35b3461014b57602036600319011261014b576004355f526004602052602060ff600360405f20015460801c16610fa86040518092610fcd565bf35b3461014b575f36600319011261014b576003546001600160a01b03168152602090f35b9060048210156104ad5752565b600435906001600160a01b038216820361014b57565b35906001600160a01b038216820361014b57565b9181601f8401121561014b578235916001600160401b03831161014b576020808501948460051b01011161014b57565b6005548110156110695760055f527f036b6384b5eca791c62761152d0c79bb0604c104a5fb6f4eb0703f3154bb3db001905f90565b634e487b7160e01b5f52603260045260245ffd5b9081518082526020808093019301915f5b82811061109c575050505090565b83516001600160a01b03168552938101939281019260010161108e565b156110c057565b60405162461bcd60e51b815260206004820152600d60248201526c27b7363c9037b832b930ba37b960991b6044820152606490fd5b5f1981146111035760010190565b634e487b7160e01b5f52601160045260245ffd5b91908110156110695760051b0190565b356001600160a01b038116810361014b5790565b6001600160401b03811161049957604052565b60e081019081106001600160401b0382111761049957604052565b90601f801991011681019081106001600160401b0382111761049957604052565b9092916001600160401b038411610499578360051b60405192602080946111b382850182611169565b809781520191810192831161014b57905b8282106111d15750505050565b8380916111dd84610ff0565b8152019101906111c4565b906040519182815491828252602092838301915f52835f20935f905b82821061121c5750505061121a92500383611169565b565b85546001600160a01b031684526001958601958895509381019390910190611204565b356001600160401b038116810361014b5790565b905f5b825181101561129257600581901b8301602001516001600160a01b0383811691161461128a57611285906110f5565b611256565b505050600190565b5050505f90565b9190915f5b8381106112ad57505050505f90565b6112bb61055d828685611117565b6001600160a01b038481169116146112db576112d6906110f5565b61129e565b50505050600190565b156112eb57565b60405162461bcd60e51b815260206004820152600a60248201526927b7363c9037bbb732b960b11b6044820152606490fdfea2646970667358221220dd36bb99f229ce2eed3a9d438162908176cf9192c86d67844d89107c87a3422464736f6c63430008140033","linkReferences":{}},"methodIdentifiers":{"agentRegistry()":"0d1cfcae","allGameIds(uint256)":"5a5cfc1c","cancelGame(bytes32)":"3f7121b0","createGame(bytes32,address[],address[])":"d5a35f85","games(bytes32)":"f579f882","getGame(bytes32)":"73931bbf","getGameStatus(bytes32)":"146c638d","getTotalGames()":"5bd4349b","operator()":"570ca735","owner()":"8da5cb5b","setAgentRegistry(address)":"28342ecf","setOperator(address)":"b3ab15fb","setWagerVault(address)":"4ba8c8ba","settleGame(bytes32,bool,address[],uint64[],uint64[])":"3d063080","totalGamesCreated()":"8dbb15bb","totalGamesSettled()":"2517e2f9","transferOwnership(address)":"f2fde38b","wagerVault()":"84df5d84"},"id":17}