{"abi":[{"type":"constructor","inputs":[{"name":"_wagerVault","type":"address","internalType":"address"},{"name":"_agentRegistry","type":"address","internalType":"address"}],"stateMutability":"nonpayable"},{"type":"function","name":"agentRegistry","inputs":[],"outputs":[{"name":"","type":"address","internalType":"contract AgentRegistry"}],"stateMutability":"view"},{"type":"function","name":"allGameIds","inputs":[{"name":"","type":"uint256","internalType":"uint256"}],"outputs":[{"name":"","type":"bytes32","internalType":"bytes32"}],"stateMutability":"view"},{"type":"function","name":"cancelGame","inputs":[{"name":"gameId","type":"bytes32","internalType":"bytes32"}],"outputs":[],"stateMutability":"nonpayable"},{"type":"function","name":"createGame","inputs":[{"name":"gameId","type":"bytes32","internalType":"bytes32"},{"name":"players","type":"address[]","internalType":"address[]"},{"name":"impostors","type":"address[]","internalType":"address[]"}],"outputs":[],"stateMutability":"nonpayable"},{"type":"function","name":"games","inputs":[{"name":"","type":"bytes32","internalType":"bytes32"}],"outputs":[{"name":"gameId","type":"bytes32","internalType":"bytes32"},{"name":"createdAt","type":"uint64","internalType":"uint64"},{"name":"settledAt","type":"uint64","internalType":"uint64"},{"name":"status","type":"uint8","internalType":"enum GameSettlement.GameStatus"},{"name":"crewmatesWon","type":"bool","internalType":"bool"}],"stateMutability":"view"},{"type":"function","name":"getGame","inputs":[{"name":"gameId","type":"bytes32","internalType":"bytes32"}],"outputs":[{"name":"players","type":"address[]","internalType":"address[]"},{"name":"impostors","type":"address[]","internalType":"address[]"},{"name":"createdAt","type":"uint64","internalType":"uint64"},{"name":"settledAt","type":"uint64","internalType":"uint64"},{"name":"status","type":"uint8","internalType":"enum GameSettlement.GameStatus"},{"name":"crewmatesWon","type":"bool","internalType":"bool"}],"stateMutability":"view"},{"type":"function","name":"getGameStatus","inputs":[{"name":"gameId","type":"bytes32","internalType":"bytes32"}],"outputs":[{"name":"","type":"uint8","internalType":"enum GameSettlement.GameStatus"}],"stateMutability":"view"},{"type":"function","name":"getTotalGames","inputs":[],"outputs":[{"name":"created","type":"uint256","internalType":"uint256"},{"name":"settled","type":"uint256","internalType":"uint256"}],"stateMutability":"view"},{"type":"function","name":"operator","inputs":[],"outputs":[{"name":"","type":"address","internalType":"address"}],"stateMutability":"view"},{"type":"function","name":"owner","inputs":[],"outputs":[{"name":"","type":"address","internalType":"address"}],"stateMutability":"view"},{"type":"function","name":"setAgentRegistry","inputs":[{"name":"_agentRegistry","type":"address","internalType":"address"}],"outputs":[],"stateMutability":"nonpayable"},{"type":"function","name":"setOperator","inputs":[{"name":"_operator","type":"address","internalType":"address"}],"outputs":[],"stateMutability":"nonpayable"},{"type":"function","name":"setWagerVault","inputs":[{"name":"_wagerVault","type":"address","internalType":"address"}],"outputs":[],"stateMutability":"nonpayable"},{"type":"function","name":"settleGame","inputs":[{"name":"gameId","type":"bytes32","internalType":"bytes32"},{"name":"crewmatesWon","type":"bool","internalType":"bool"},{"name":"winners","type":"address[]","internalType":"address[]"},{"name":"playerKills","type":"uint64[]","internalType":"uint64[]"},{"name":"playerTasks","type":"uint64[]","internalType":"uint64[]"}],"outputs":[],"stateMutability":"nonpayable"},{"type":"function","name":"totalGamesCreated","inputs":[],"outputs":[{"name":"","type":"uint256","internalType":"uint256"}],"stateMutability":"view"},{"type":"function","name":"totalGamesSettled","inputs":[],"outputs":[{"name":"","type":"uint256","internalType":"uint256"}],"stateMutability":"view"},{"type":"function","name":"transferOwnership","inputs":[{"name":"newOwner","type":"address","internalType":"address"}],"outputs":[],"stateMutability":"nonpayable"},{"type":"function","name":"wagerVault","inputs":[],"outputs":[{"name":"","type":"address","internalType":"contract WagerVault"}],"stateMutability":"view"},{"type":"event","name":"GameCancelled","inputs":[{"name":"gameId","type":"bytes32","indexed":true,"internalType":"bytes32"}],"anonymous":false},{"type":"event","name":"GameCreated","inputs":[{"name":"gameId","type":"bytes32","indexed":true,"internalType":"bytes32"},{"name":"playerCount","type":"uint256","indexed":false,"internalType":"uint256"},{"name":"impostorCount","type":"uint256","indexed":false,"internalType":"uint256"}],"anonymous":false},{"type":"event","name":"GameSettled","inputs":[{"name":"gameId","type":"bytes32","indexed":true,"internalType":"bytes32"},{"name":"crewmatesWon","type":"bool","indexed":false,"internalType":"bool"},{"name":"winnerCount","type":"uint256","indexed":false,"internalType":"uint256"}],"anonymous":false},{"type":"event","name":"OperatorUpdated","inputs":[{"name":"newOperator","type":"address","indexed":true,"internalType":"address"}],"anonymous":false}],"bytecode":{"object":"0x608034609d57601f61140038819003918201601f19168301916001600160401b0383118484101760a1578084926040948552833981010312609d57604b602060458360b5565b920160b5565b5f8054336001600160a01b03199182168117909255600180548216909217909155600280546001600160a01b039485169083161790556003805492909316911617905560405161133790816100c98239f35b5f80fd5b634e487b7160e01b5f52604160045260245ffd5b51906001600160a01b0382168203609d5756fe6080806040526004361015610012575f80fd5b5f3560e01c9081630d1cfcae14610fe357508063146c638d14610fa95780632517e2f914610f8c57806328342ecf14610f3d5780633d06308014610ad35780633f7121b0146109815780634ba8c8ba14610932578063570ca7351461090a5780635a5cfc1c146108d25780635bd4349b146108ae57806373931bbf1461079a57806384df5d84146107725780638da5cb5b1461074b5780638dbb15bb1461072e578063b3ab15fb146106bc578063d5a35f85146101d4578063f2fde38b146101565763f579f882146100e2575f80fd5b34610152576020366003190112610152576004355f52600460205260a060405f2060ff600382549201546040519283526001600160401b03811660208401526001600160401b038160401c16604084015261014560608401838360801c16611006565b60881c1615156080820152f35b5f80fd5b346101525760203660031901126101525761016f611013565b5f5490610186336001600160a01b038416146110c1565b6001600160a01b03169081156101a5576001600160a01b031916175f55005b60405162461bcd60e51b8152602060048201526007602482015266125b9d985b1a5960ca1b6044820152606490fd5b34610152576060366003190112610152576004356024356001600160401b0381116101525761020790369060040161103d565b6044356001600160401b0381116101525761022690369060040161103d565b9260018060a01b0360015416331480156106a9575b610244906110fa565b845f52600460205260ff600360405f20015460801c16600481101561049457610676576004831061063f578315610609576002546001600160a01b03165f5b84811061052e5750506102ba6102aa6040519261029f84611136565b87845285369161121f565b926020830193845285369161121f565b6040820190815260608201916001600160401b034216835260808101905f825260a08101926001845260c08201955f8752895f52600460205260405f2092518355600183019051908151916001600160401b03831161048057600160401b8311610480578154838355808410610508575b50602001905f5260205f205f5b8381106104eb5750505050600282019051908151916001600160401b03831161048057600160401b83116104805781548383558084106104c5575b50602001905f5260205f205f5b8381106104a857505050506103d2916001600160401b03600381930195511682198654161785555116839067ffffffffffffffff60401b82549160401b169067ffffffffffffffff60401b1916179055565b51916004831015610494578154905161ffff60801b1990911660809390931b60ff60801b169290921791151560881b60ff60881b1691909117905560055490600160401b821015610480577f99007d3126584f2f6e4cdfcf646170362922fd5747a1df30924ac78417be8861926104518360016040950160055561106d565b81549060031b9087821b915f19901b19161790556104706006546111e9565b60065582519182526020820152a2005b634e487b7160e01b5f52604160045260245ffd5b634e487b7160e01b5f52602160045260245ffd5b82516001600160a01b031681830155602090920191600101610380565b825f528360205f2091820191015b8181106104e05750610373565b5f81556001016104d3565b82516001600160a01b031681830155602090920191600101610338565b825f528360205f2091820191015b818110610523575061032b565b5f8155600101610516565b61054161053c8287866111c5565b61120b565b604051630ca250b360e31b8152600481018990526001600160a01b039091166024820152602081604481865afa9081156105fe575f916105c4575b501561058a57600101610283565b60405162461bcd60e51b8152602060048201526012602482015271141b185e595c881b9bdd081dd859d95c995960721b6044820152606490fd5b90506020813d82116105f6575b816105de60209383611151565b8101031261015257518015158103610152578861057c565b3d91506105d1565b6040513d5f823e3d90fd5b60405162461bcd60e51b815260206004820152600e60248201526d4e65656420696d706f73746f727360901b6044820152606490fd5b60405162461bcd60e51b815260206004820152600f60248201526e4e65656420342b20706c617965727360881b6044820152606490fd5b60405162461bcd60e51b815260206004820152600b60248201526a47616d652065786973747360a81b6044820152606490fd5b505f546001600160a01b0316331461023b565b34610152576020366003190112610152576106d5611013565b6106e960018060a01b035f541633146110c1565b600180546001600160a01b0319166001600160a01b039290921691821790557fb3b3f5f64ab192e4b5fefde1f51ce9733bbdcf831951543b325aebd49cc27ec45f80a2005b34610152575f366003190112610152576020600654604051908152f35b34610152575f366003190112610152575f546040516001600160a01b039091168152602090f35b34610152575f366003190112610152576002546040516001600160a01b039091168152602090f35b34610152576020366003190112610152576004355f52600460205260405f20604051906107c682611136565b805482526107d660018201611172565b916020810192835260036107ec60028401611172565b9260408301938452015460608201906001600160401b038116825260808301926001600160401b038260401c16845260ff8260801c1660a082019660048210156104945760ff60c06001600160401b039485948b52019460881c16151584525195519351169351169451600481101561049457610882956108906108a5935115159460405198899860c08a5260c08a0190611085565b9088820360208a0152611085565b94604087015260608601526080850190611006565b60a08301520390f35b34610152575f36600319011261015257604060065460075482519182526020820152f35b3461015257602036600319011261015257600435600554811015610152576108fb60209161106d565b90549060031b1c604051908152f35b34610152575f366003190112610152576001546040516001600160a01b039091168152602090f35b346101525760203660031901126101525761094b611013565b61095f60018060a01b035f541633146110c1565b600280546001600160a01b0319166001600160a01b0392909216919091179055005b346101525760203660031901126101525760043560018060a01b036001541633148015610ac0575b6109b2906110fa565b805f526004602052600360405f200160ff815460801c1660048110156104945760018114908115610ab7575b5015610a8257805468ffffffffffffffffff60401b19164260401b67ffffffffffffffff60401b1617600360801b1790556002546001600160a01b0316803b15610152575f80916024604051809481936316048ce160e31b83528760048401525af180156105fe57610a72575b507f730d9f4e127b4c1c5d999194f79025fe149736fbb95b0755b18ed20ddd01b4e05f80a2005b5f610a7c91611151565b81610a4b565b60405162461bcd60e51b815260206004820152600d60248201526c10d85b9b9bdd0818d85b98d95b609a1b6044820152606490fd5b905015836109de565b505f546001600160a01b031633146109a9565b346101525760a036600319011261015257602435801515600435818303610152576044356001600160401b03811161015257610b1390369060040161103d565b90936064356001600160401b03811161015257610b3490369060040161103d565b9590916084356001600160401b03811161015257610b5690369060040161103d565b6001546001600160a01b031633148015610f2a575b610b74906110fa565b865f52600460205260405f206003810160ff815460801c16600481101561049457600103610ef3578715610ebf57805468ffffffffffffffffff60401b19164260401b67ffffffffffffffff60401b1617600160811b178155600494610bf191805460ff60881b191691151560881b60ff60881b16919091179055565b60025460405163127791c160e21b81529460209186919082906001600160a01b03165afa9384156105fe575f94610e8b575b5060018101906002015f5b8254811015610dae578254811015610d9a575f838152602090208101548991908b906001600160a01b03168e610c7782610c7081610c6b8a611172565b61127c565b968d6112bc565b60035490956001600160a01b03909116918d8682811015610d9157610ca492610c9f926111c5565b6111d5565b898b8782811015610d8857610cbc92610c9f926111c5565b8715610d81576001600160801b038d16915b8d8915610d7257505f935b853b1561015257604051998a98899863365f349d60e01b8a5260048a0152602489015215156044880152151560648701526001600160401b031660848601526001600160401b031660a48501526001600160801b031660c48401526001600160801b031660e48301525a925f610104928195f19182156105fe57600192610d62575b5001610c2e565b5f610d6c91611151565b8d610d5b565b6001600160801b031693610cd9565b5f91610cce565b5050505f610cbc565b5050505f610ca4565b634e487b7160e01b5f52603260045260245ffd5b89878a8d60018060a01b0360025416803b1561015257604051809463857ae41960e01b82528460448301886004850152604060248501525260648201905f5b868110610e5d57505091815f81819503925af19182156105fe577fd98ed4acfe0ac4aff15ebc259c6a02018ff79e1a0bed27156c3d8ac550b12c3a93604093610e4d575b50610e3d6007546111e9565b60075582519182526020820152a2005b5f610e5791611151565b85610e31565b9092509060019060209081906001600160a01b03610e7a87611029565b168152019301910190869291610ded565b9093506020813d602011610eb7575b81610ea760209383611151565b810103126101525751928a610c23565b3d9150610e9a565b60405162461bcd60e51b815260206004820152600c60248201526b4e6565642077696e6e65727360a01b6044820152606490fd5b60405162461bcd60e51b815260206004820152600f60248201526e47616d65206e6f742061637469766560881b6044820152606490fd5b505f546001600160a01b03163314610b6b565b3461015257602036600319011261015257610f56611013565b610f6a60018060a01b035f541633146110c1565b600380546001600160a01b0319166001600160a01b0392909216919091179055005b34610152575f366003190112610152576020600754604051908152f35b34610152576020366003190112610152576004355f526004602052602060ff600360405f20015460801c16610fe16040518092611006565bf35b34610152575f366003190112610152576003546001600160a01b03168152602090f35b9060048210156104945752565b600435906001600160a01b038216820361015257565b35906001600160a01b038216820361015257565b9181601f84011215610152578235916001600160401b038311610152576020808501948460051b01011161015257565b600554811015610d9a5760055f5260205f2001905f90565b90602080835192838152019201905f5b8181106110a25750505090565b82516001600160a01b0316845260209384019390920191600101611095565b156110c857565b60405162461bcd60e51b815260206004820152600a60248201526927b7363c9037bbb732b960b11b6044820152606490fd5b1561110157565b60405162461bcd60e51b815260206004820152600d60248201526c27b7363c9037b832b930ba37b960991b6044820152606490fd5b60e081019081106001600160401b0382111761048057604052565b90601f801991011681019081106001600160401b0382111761048057604052565b90604051918281549182825260208201905f5260205f20925f5b8181106111a35750506111a192500383611151565b565b84546001600160a01b031683526001948501948794506020909301920161118c565b9190811015610d9a5760051b0190565b356001600160401b03811681036101525790565b5f1981146111f75760010190565b634e487b7160e01b5f52601160045260245ffd5b356001600160a01b03811681036101525790565b929190926001600160401b038411610480578360051b90602060405161124782850182611151565b809681520191810192831161015257905b82821061126457505050565b6020809161127184611029565b815201910190611258565b905f5b82518110156112b557600581901b8301602001516001600160a01b038381169116146112ad5760010161127f565b505050600190565b5050505f90565b9190915f5b8381106112d057505050505f90565b6112de61053c8286856111c5565b6001600160a01b038481169116146112f8576001016112c1565b5050505060019056fea26469706673582212205a4d4bddc8573839618579fc4c74d3e7348ad891755930e11fa94328c793735764736f6c634300081c0033","linkReferences":{}},"methodIdentifiers":{"agentRegistry()":"0d1cfcae","allGameIds(uint256)":"5a5cfc1c","cancelGame(bytes32)":"3f7121b0","createGame(bytes32,address[],address[])":"d5a35f85","games(bytes32)":"f579f882","getGame(bytes32)":"73931bbf","getGameStatus(bytes32)":"146c638d","getTotalGames()":"5bd4349b","operator()":"570ca735","owner()":"8da5cb5b","setAgentRegistry(address)":"28342ecf","setOperator(address)":"b3ab15fb","setWagerVault(address)":"4ba8c8ba","settleGame(bytes32,bool,address[],uint64[],uint64[])":"3d063080","totalGamesCreated()":"8dbb15bb","totalGamesSettled()":"2517e2f9","transferOwnership(address)":"f2fde38b","wagerVault()":"84df5d84"},"id":22}