{"abi":[{"type":"constructor","inputs":[{"name":"_feeRecipient","type":"address","internalType":"address"},{"name":"_feePercentage","type":"uint256","internalType":"uint256"}],"stateMutability":"nonpayable"},{"type":"receive","stateMutability":"payable"},{"type":"function","name":"deposit","inputs":[{"name":"_gameId","type":"uint256","internalType":"uint256"},{"name":"_player","type":"address","internalType":"address"}],"outputs":[],"stateMutability":"payable"},{"type":"function","name":"deposits","inputs":[{"name":"","type":"uint256","internalType":"uint256"},{"name":"","type":"address","internalType":"address"}],"outputs":[{"name":"","type":"uint256","internalType":"uint256"}],"stateMutability":"view"},{"type":"function","name":"emergencyRefund","inputs":[{"name":"_gameId","type":"uint256","internalType":"uint256"},{"name":"_players","type":"address[]","internalType":"address[]"}],"outputs":[],"stateMutability":"nonpayable"},{"type":"function","name":"factory","inputs":[],"outputs":[{"name":"","type":"address","internalType":"address"}],"stateMutability":"view"},{"type":"function","name":"feePercentage","inputs":[],"outputs":[{"name":"","type":"uint256","internalType":"uint256"}],"stateMutability":"view"},{"type":"function","name":"feeRecipient","inputs":[],"outputs":[{"name":"","type":"address","internalType":"address"}],"stateMutability":"view"},{"type":"function","name":"gamePools","inputs":[{"name":"","type":"uint256","internalType":"uint256"}],"outputs":[{"name":"","type":"uint256","internalType":"uint256"}],"stateMutability":"view"},{"type":"function","name":"gameSettled","inputs":[{"name":"","type":"uint256","internalType":"uint256"}],"outputs":[{"name":"","type":"bool","internalType":"bool"}],"stateMutability":"view"},{"type":"function","name":"gamesPlayed","inputs":[{"name":"","type":"address","internalType":"address"}],"outputs":[{"name":"","type":"uint256","internalType":"uint256"}],"stateMutability":"view"},{"type":"function","name":"gamesWon","inputs":[{"name":"","type":"address","internalType":"address"}],"outputs":[{"name":"","type":"uint256","internalType":"uint256"}],"stateMutability":"view"},{"type":"function","name":"getDeposit","inputs":[{"name":"_gameId","type":"uint256","internalType":"uint256"},{"name":"_player","type":"address","internalType":"address"}],"outputs":[{"name":"","type":"uint256","internalType":"uint256"}],"stateMutability":"view"},{"type":"function","name":"getGamePool","inputs":[{"name":"_gameId","type":"uint256","internalType":"uint256"}],"outputs":[{"name":"","type":"uint256","internalType":"uint256"}],"stateMutability":"view"},{"type":"function","name":"getPlayerStats","inputs":[{"name":"_player","type":"address","internalType":"address"}],"outputs":[{"name":"wagered","type":"uint256","internalType":"uint256"},{"name":"winnings","type":"uint256","internalType":"uint256"},{"name":"played","type":"uint256","internalType":"uint256"},{"name":"won","type":"uint256","internalType":"uint256"}],"stateMutability":"view"},{"type":"function","name":"isSettled","inputs":[{"name":"_gameId","type":"uint256","internalType":"uint256"}],"outputs":[{"name":"","type":"bool","internalType":"bool"}],"stateMutability":"view"},{"type":"function","name":"refund","inputs":[{"name":"_gameId","type":"uint256","internalType":"uint256"},{"name":"_player","type":"address","internalType":"address"}],"outputs":[],"stateMutability":"nonpayable"},{"type":"function","name":"setFeePercentage","inputs":[{"name":"_newPercentage","type":"uint256","internalType":"uint256"}],"outputs":[],"stateMutability":"nonpayable"},{"type":"function","name":"setFeeRecipient","inputs":[{"name":"_newRecipient","type":"address","internalType":"address"}],"outputs":[],"stateMutability":"nonpayable"},{"type":"function","name":"settleGame","inputs":[{"name":"_gameId","type":"uint256","internalType":"uint256"},{"name":"_game","type":"address","internalType":"address"}],"outputs":[],"stateMutability":"nonpayable"},{"type":"function","name":"totalWagered","inputs":[{"name":"","type":"address","internalType":"address"}],"outputs":[{"name":"","type":"uint256","internalType":"uint256"}],"stateMutability":"view"},{"type":"function","name":"totalWinnings","inputs":[{"name":"","type":"address","internalType":"address"}],"outputs":[{"name":"","type":"uint256","internalType":"uint256"}],"stateMutability":"view"},{"type":"event","name":"Deposited","inputs":[{"name":"gameId","type":"uint256","indexed":true,"internalType":"uint256"},{"name":"player","type":"address","indexed":true,"internalType":"address"},{"name":"amount","type":"uint256","indexed":false,"internalType":"uint256"}],"anonymous":false},{"type":"event","name":"FeeCollected","inputs":[{"name":"gameId","type":"uint256","indexed":true,"internalType":"uint256"},{"name":"amount","type":"uint256","indexed":false,"internalType":"uint256"}],"anonymous":false},{"type":"event","name":"RefundIssued","inputs":[{"name":"gameId","type":"uint256","indexed":true,"internalType":"uint256"},{"name":"player","type":"address","indexed":true,"internalType":"address"},{"name":"amount","type":"uint256","indexed":false,"internalType":"uint256"}],"anonymous":false},{"type":"event","name":"WinningsDistributed","inputs":[{"name":"gameId","type":"uint256","indexed":true,"internalType":"uint256"},{"name":"winner","type":"address","indexed":true,"internalType":"address"},{"name":"amount","type":"uint256","indexed":false,"internalType":"uint256"}],"anonymous":false},{"type":"event","name":"Withdrawn","inputs":[{"name":"gameId","type":"uint256","indexed":true,"internalType":"uint256"},{"name":"player","type":"address","indexed":true,"internalType":"address"},{"name":"amount","type":"uint256","indexed":false,"internalType":"uint256"}],"anonymous":false}],"bytecode":{"object":"0x60803461008157601f610ef638819003918201601f19168301916001600160401b038311848410176100855780849260409485528339810103126100815780516001600160a01b038116919082900361008157602001519060018060a01b031933815f5416175f556001541617600155600255604051610e5c908161009a8239f35b5f80fd5b634e487b7160e01b5f52604160045260245ffdfe6080604081815260049182361015610021575b505050361561001f575f80fd5b005b5f92833560e01c9182630633ac5914610c42575081634690484014610c19578163470762e914610be15781634d0ed9da14610b5c5781634fd66eae14610b8357816353a58de11461080f5781635556603614610b5c5781636e553f6514610a2157816370180bc1146109e9578163785ecb37146109bc5781637ad226dc146108895781638b8840e0146108515781639f489e4e1461080f578163a001ecdd146107f0578163ae06c1b714610783578163bad0cf9c1461062e578163c424a682146101bf57508063c45a015514610198578063e74b981b146101465763f416a09f1461010c5780610012565b346101425760203660031901126101425760209181906001600160a01b03610132610c70565b1681526009845220549051908152f35b5080fd5b823461019557602036600319011261019557610160610c70565b81546001600160a01b0391906101799083163314610ca0565b166bffffffffffffffffffffffff60a01b600154161760015580f35b80fd5b5034610142578160031936011261014257905490516001600160a01b039091168152602090f35b9190503461062a578060031936011261062a578135906101dd610c8a565b845490926001600160a01b03916101f79083163314610ca0565b80865260058260209582875261021360ff878b20541615610dc8565b168451631810bd9960e31b815286818981855afa9081156105b35789916105f1575b50156105bd57828852818652848820805460ff1916600190811790915585516311c5fe5f60e21b815294939291899086908a9082905afa9485156105b35789956104ed575b5082895287875285892054926102a061271061029860025487610e13565b048095610d0a565b93801515806104e1575b61045f575b508551801580156102be578b80f35b61044c578404928a835b61037e575b50505050906102e16102e792855190610e13565b90610d0a565b9182151580610374575b6102ff575b80808080808b80f35b8051156103615786809381938783940151165af161031b610d4d565b5015610329578080806102f6565b5162461bcd60e51b8152918201526014602482015273111d5cdd081d1c985b9cd9995c8819985a5b195960621b604482015260649150fd5b634e487b7160e01b875260328652602487fd5b50805115156102f1565b875181101561044757868a82841b8a01015116808d5260068b52898d206103a6878254610cdb565b9055808d5260098b52898d206103bc8154610cfc565b90558c80808089855af16103ce610d4d565b501561040d579061040791847fd045461de0c2674bd3b698dce4742980fb0a158169b17eba4c9362fd80855c918d8d518a8152a3610cfc565b836102c8565b895162461bcd60e51b8152808d018c9052601460248201527315da5b9b995c881c185e5bdd5d0819985a5b195960621b6044820152606490fd5b6102cd565b634e487b7160e01b8b5260128a5260248bfd5b8a808080848a8854165af1610472610d4d565b50156104a8577faf7c505ee772ec188af7067e1f73db08ab028e3d564273442b907742b9c41fa08983928a51908152a25f6102af565b875162461bcd60e51b8152808b018a90526013602482015272119959481d1c985b9cd9995c8819985a5b1959606a1b6044820152606490fd5b508583541615156102aa565b9094503d808a833e6104ff8183610d17565b81016060828203126105af5761051482610e06565b508782015167ffffffffffffffff92838211610594570181601f820112156105ab5780519283116105985782841b908851936105528b840186610d17565b84528980850192820101928311610594578901905b82821061057857505050935f61027a565b81518781168103610590578152908901908901610567565b8c80fd5b8b80fd5b634e487b7160e01b8b5260418a5260248bfd5b8a80fd5b8980fd5b86513d8b823e3d90fd5b845162461bcd60e51b8152808801879052600e60248201526d11d85b59481b9bdd08195b99195960921b6044820152606490fd5b90508681813d8311610623575b6106088183610d17565b8101031261061f5761061990610e06565b5f610235565b8880fd5b503d6105fe565b8280fd5b9190503461062a578060031936011261062a578135602480359067ffffffffffffffff9485831161077b573660238401121561077b5782013594851161077f57600590368187841b8501011161077b5786546001600160a01b0393906106979085163314610ca0565b8488526020928084526106b060ff888b20541615610dc8565b858952808452868920805460ff19166001179055885b8881106106d1578980f35b8381831b84010135908682168b8184036101955761071693888c838d809552600390818452828120878252845282812054928361071b575b5050505050505050610cfc565b6106c6565b8180857f7a482fdeb6bc9a1376f597068a214a7a39472bb2eff1b8cad21ba04f49ddca1b98828095610768988d83528b528d8183209083528b528120555af1610762610d4d565b50610d8c565b8d51908152a35f888188818f808f610709565b8680fd5b8580fd5b90503461062a57602036600319011261062a578035916107ad60018060a01b038554163314610ca0565b6103e883116107be57505060025580f35b906020606492519162461bcd60e51b8352820152600c60248201526b08ccaca40e8dede40d0d2ced60a31b6044820152fd5b5050346101425781600319360112610142576020906002549051908152f35b90503461062a578160031936011261062a57602092829161082e610c8a565b90358252600385528282206001600160a01b039091168252845220549051908152f35b5050346101425760203660031901126101425760209181906001600160a01b03610879610c70565b1681526006845220549051908152f35b83833461014257806003193601126101425782356108a5610c8a565b83546001600160a01b039391906108bf9085163314610ca0565b828552602091600383528086209482169485875283528086205491821561098c578487526003845281872086885284528682812055848752878452818720610908848254610d0a565b90558587526007845281872061091f848254610d0a565b9055858752600884528187208054801561097957888080877f7a482fdeb6bc9a1376f597068a214a7a39472bb2eff1b8cad21ba04f49ddca1b999897966109719683965f190190555af1610762610d4d565b51908152a380f35b634e487b7160e01b895260118a52602489fd5b815162461bcd60e51b8152808901859052600a602482015269139bc819195c1bdcda5d60b21b6044820152606490fd5b90503461062a57602036600319011261062a578160209360ff923581526005855220541690519015158152f35b5050346101425760203660031901126101425760209181906001600160a01b03610a11610c70565b1681526008845220549051908152f35b90508160031936011261062a57803590610a39610c8a565b9260018060a01b0391610a50838754163314610ca0565b3415610b2a5783865260209260038452828720951694858752835281862054610af557907f1599c0fcf897af5babc2bfcf707f5dc050f841b044d97c3251ecec35b9abf80b929184875260038352818720868852835234828820558487528252808620610abe348254610cdb565b905584865260078252808620610ad5348254610cdb565b905584865260088252808620610aeb8154610cfc565b905551348152a380f35b82606492519162461bcd60e51b83528201526011602482015270105b1c9958591e4819195c1bdcda5d1959607a1b6044820152fd5b6020606492519162461bcd60e51b8352820152600d60248201526c139bc81d985b1d59481cd95b9d609a1b6044820152fd5b90503461062a57602036600319011261062a57602092818392358252845220549051908152f35b5050346101425760208060031936011261062a576080926001600160a01b03610baa610c70565b1681526007825282812054926006835280822054600884528180842054936009865220549382519586528501528301526060820152f35b5050346101425760203660031901126101425760209181906001600160a01b03610c09610c70565b1681526007845220549051908152f35b50503461014257816003193601126101425760015490516001600160a01b039091168152602090f35b92915034610c6c576020366003190112610c6c573583526005602090815292205460ff1615158152f35b8380fd5b600435906001600160a01b0382168203610c8657565b5f80fd5b602435906001600160a01b0382168203610c8657565b15610ca757565b60405162461bcd60e51b815260206004820152600c60248201526b4f6e6c7920666163746f727960a01b6044820152606490fd5b91908201809211610ce857565b634e487b7160e01b5f52601160045260245ffd5b5f198114610ce85760010190565b91908203918211610ce857565b90601f8019910116810190811067ffffffffffffffff821117610d3957604052565b634e487b7160e01b5f52604160045260245ffd5b3d15610d87573d9067ffffffffffffffff8211610d395760405191610d7c601f8201601f191660200184610d17565b82523d5f602084013e565b606090565b15610d9357565b60405162461bcd60e51b815260206004820152600d60248201526c1499599d5b990819985a5b1959609a1b6044820152606490fd5b15610dcf57565b60405162461bcd60e51b815260206004820152600f60248201526e105b1c9958591e481cd95d1d1b1959608a1b6044820152606490fd5b51908115158203610c8657565b81810292918115918404141715610ce85756fea264697066735822122055f7a5f707469f8c4f2569d901ccba34ff179d8f7333dd50784f5170bcab20ef64736f6c63430008140033","linkReferences":{}},"methodIdentifiers":{"deposit(uint256,address)":"6e553f65","deposits(uint256,address)":"53a58de1","emergencyRefund(uint256,address[])":"bad0cf9c","factory()":"c45a0155","feePercentage()":"a001ecdd","feeRecipient()":"46904840","gamePools(uint256)":"4d0ed9da","gameSettled(uint256)":"0633ac59","gamesPlayed(address)":"70180bc1","gamesWon(address)":"f416a09f","getDeposit(uint256,address)":"9f489e4e","getGamePool(uint256)":"55566036","getPlayerStats(address)":"4fd66eae","isSettled(uint256)":"785ecb37","refund(uint256,address)":"7ad226dc","setFeePercentage(uint256)":"ae06c1b7","setFeeRecipient(address)":"e74b981b","settleGame(uint256,address)":"c424a682","totalWagered(address)":"470762e9","totalWinnings(address)":"8b8840e0"},"id":23}