{"abi":[{"type":"constructor","inputs":[{"name":"_agentRegistry","type":"address","internalType":"address"},{"name":"_wagerToken","type":"address","internalType":"address"}],"stateMutability":"nonpayable"},{"type":"function","name":"agentRegistry","inputs":[],"outputs":[{"name":"","type":"address","internalType":"contract AgentRegistry"}],"stateMutability":"view"},{"type":"function","name":"balances","inputs":[{"name":"","type":"address","internalType":"address"}],"outputs":[{"name":"","type":"uint256","internalType":"uint256"}],"stateMutability":"view"},{"type":"function","name":"deposit","inputs":[{"name":"amount","type":"uint256","internalType":"uint256"}],"outputs":[],"stateMutability":"nonpayable"},{"type":"function","name":"gameSettlement","inputs":[],"outputs":[{"name":"","type":"address","internalType":"address"}],"stateMutability":"view"},{"type":"function","name":"getBalance","inputs":[{"name":"agent","type":"address","internalType":"address"}],"outputs":[{"name":"","type":"uint256","internalType":"uint256"}],"stateMutability":"view"},{"type":"function","name":"getContractBalance","inputs":[],"outputs":[{"name":"","type":"uint256","internalType":"uint256"}],"stateMutability":"view"},{"type":"function","name":"getGamePlayers","inputs":[{"name":"gameId","type":"bytes32","internalType":"bytes32"}],"outputs":[{"name":"","type":"address[]","internalType":"address[]"}],"stateMutability":"view"},{"type":"function","name":"getGamePot","inputs":[{"name":"gameId","type":"bytes32","internalType":"bytes32"}],"outputs":[{"name":"","type":"uint256","internalType":"uint256"}],"stateMutability":"view"},{"type":"function","name":"hasWagered","inputs":[{"name":"gameId","type":"bytes32","internalType":"bytes32"},{"name":"agent","type":"address","internalType":"address"}],"outputs":[{"name":"","type":"bool","internalType":"bool"}],"stateMutability":"view"},{"type":"function","name":"isGameRefunded","inputs":[{"name":"gameId","type":"bytes32","internalType":"bytes32"}],"outputs":[{"name":"","type":"bool","internalType":"bool"}],"stateMutability":"view"},{"type":"function","name":"isGameSettled","inputs":[{"name":"gameId","type":"bytes32","internalType":"bytes32"}],"outputs":[{"name":"","type":"bool","internalType":"bool"}],"stateMutability":"view"},{"type":"function","name":"owner","inputs":[],"outputs":[{"name":"","type":"address","internalType":"address"}],"stateMutability":"view"},{"type":"function","name":"placeWager","inputs":[{"name":"gameId","type":"bytes32","internalType":"bytes32"}],"outputs":[],"stateMutability":"nonpayable"},{"type":"function","name":"protocolFeePercent","inputs":[],"outputs":[{"name":"","type":"uint256","internalType":"uint256"}],"stateMutability":"view"},{"type":"function","name":"refundGame","inputs":[{"name":"gameId","type":"bytes32","internalType":"bytes32"}],"outputs":[],"stateMutability":"nonpayable"},{"type":"function","name":"setGameSettlement","inputs":[{"name":"_gameSettlement","type":"address","internalType":"address"}],"outputs":[],"stateMutability":"nonpayable"},{"type":"function","name":"setProtocolFee","inputs":[{"name":"_feePercent","type":"uint256","internalType":"uint256"}],"outputs":[],"stateMutability":"nonpayable"},{"type":"function","name":"setWagerAmount","inputs":[{"name":"_wagerAmount","type":"uint256","internalType":"uint256"}],"outputs":[],"stateMutability":"nonpayable"},{"type":"function","name":"setWagerToken","inputs":[{"name":"_wagerToken","type":"address","internalType":"address"}],"outputs":[],"stateMutability":"nonpayable"},{"type":"function","name":"settleGame","inputs":[{"name":"gameId","type":"bytes32","internalType":"bytes32"},{"name":"winners","type":"address[]","internalType":"address[]"}],"outputs":[],"stateMutability":"nonpayable"},{"type":"function","name":"transferOwnership","inputs":[{"name":"newOwner","type":"address","internalType":"address"}],"outputs":[],"stateMutability":"nonpayable"},{"type":"function","name":"wagerAmount","inputs":[],"outputs":[{"name":"","type":"uint256","internalType":"uint256"}],"stateMutability":"view"},{"type":"function","name":"wagerToken","inputs":[],"outputs":[{"name":"","type":"address","internalType":"contract IERC20"}],"stateMutability":"view"},{"type":"function","name":"withdraw","inputs":[{"name":"amount","type":"uint256","internalType":"uint256"}],"outputs":[],"stateMutability":"nonpayable"},{"type":"function","name":"withdrawProtocolFees","inputs":[],"outputs":[],"stateMutability":"nonpayable"},{"type":"event","name":"Deposited","inputs":[{"name":"agent","type":"address","indexed":true,"internalType":"address"},{"name":"amount","type":"uint256","indexed":false,"internalType":"uint256"},{"name":"newBalance","type":"uint256","indexed":false,"internalType":"uint256"}],"anonymous":false},{"type":"event","name":"GameRefunded","inputs":[{"name":"gameId","type":"bytes32","indexed":true,"internalType":"bytes32"},{"name":"playersRefunded","type":"uint256","indexed":false,"internalType":"uint256"}],"anonymous":false},{"type":"event","name":"GameSettled","inputs":[{"name":"gameId","type":"bytes32","indexed":true,"internalType":"bytes32"},{"name":"winners","type":"address[]","indexed":false,"internalType":"address[]"},{"name":"winningsPerPlayer","type":"uint256","indexed":false,"internalType":"uint256"},{"name":"protocolFee","type":"uint256","indexed":false,"internalType":"uint256"}],"anonymous":false},{"type":"event","name":"ProtocolFeeUpdated","inputs":[{"name":"oldFee","type":"uint256","indexed":false,"internalType":"uint256"},{"name":"newFee","type":"uint256","indexed":false,"internalType":"uint256"}],"anonymous":false},{"type":"event","name":"TokenUpdated","inputs":[{"name":"oldToken","type":"address","indexed":false,"internalType":"address"},{"name":"newToken","type":"address","indexed":false,"internalType":"address"}],"anonymous":false},{"type":"event","name":"WagerAmountUpdated","inputs":[{"name":"oldAmount","type":"uint256","indexed":false,"internalType":"uint256"},{"name":"newAmount","type":"uint256","indexed":false,"internalType":"uint256"}],"anonymous":false},{"type":"event","name":"WagerPlaced","inputs":[{"name":"gameId","type":"bytes32","indexed":true,"internalType":"bytes32"},{"name":"agent","type":"address","indexed":true,"internalType":"address"},{"name":"amount","type":"uint256","indexed":false,"internalType":"uint256"}],"anonymous":false},{"type":"event","name":"Withdrawn","inputs":[{"name":"agent","type":"address","indexed":true,"internalType":"address"},{"name":"amount","type":"uint256","indexed":false,"internalType":"uint256"},{"name":"newBalance","type":"uint256","indexed":false,"internalType":"uint256"}],"anonymous":false}],"bytecode":{"object":"0x6080346100a057601f61135038819003918201601f19168301916001600160401b038311848410176100a45780849260409485528339810103126100a057610052602061004b836100b8565b92016100b8565b90678ac7230489e800006004556005805560018060a01b03199133835f5416175f5560018060a01b038092168360025416176002551690600354161760035560405161128390816100cd8239f35b5f80fd5b634e487b7160e01b5f52604160045260245ffd5b51906001600160a01b03821682036100a05756fe60806040818152600480361015610014575f80fd5b5f92833560e01c9081630d1cfcae146110145750806327e235e3146101925780632d1b2c0614610fc25780632e1a7d4d14610e8e57806332fb035c14610e655780633c26173414610dbb57806349de470414610d9e5780636512859814610d4d5780636f9fb98a14610cb657806377d698ba14610c8f578063787dce3d14610bf45780637ac20cf114610bc2578063857ae4191461098a5780638795cccb146108805780638da5cb5b14610858578063984c1f3d14610652578063adad368514610629578063b024670814610518578063b6b55f2514610318578063c3169e871461029f578063d6766eef14610270578063d6e6eb9f14610251578063f2fde38b146101ce578063f8b2cb4f146101925763ffd924a614610133575f80fd5b3461018e57602036600319011261018e577fafdc20ac1d421ba9009d06290160ca77210434bbebe841d29af7367ab73bc45c81359261017c60018060a01b038654163314611214565b82548151908152846020820152a15580f35b8280fd5b5050346101ca5760203660031901126101ca5760209181906001600160a01b036101ba611039565b1681526006845220549051908152f35b5080fd5b503461018e57602036600319011261018e576101e8611039565b835491906001600160a01b03906102023383861614611214565b1692831561021c5750506001600160a01b03191617815580f35b906020606492519162461bcd60e51b8352820152600f60248201526e496e76616c6964206164647265737360881b6044820152fd5b5050346101ca57816003193601126101ca576020906005549051908152f35b503461018e57602036600319011261018e5760038260209460ff93358152600786522001541690519015158152f35b5050346101ca5760203660031901126101ca576102ba611039565b907f0b1186973f810894b87ab0bfbee422fddcaad21b46dc705a561451bbb6bac11760018060a01b03916102f2838654163314611214565b6003549281519481851686521693846020820152a16001600160a01b0319161760035580f35b509190346101ca576020908160031936011261018e5783359182156104dd5760035482516323b872dd60e01b81523387820152306024820152604481018590526001600160a01b03918390829060649082908a9087165af19081156104b657906103899187916104c0575b506110a1565b3385526006825282852061039e8582546110e5565b905560025416825163c3c5a54760e01b815233878201528281602481855afa9081156104b6578691610489575b5015610410575b50907f73a19dd210f1a7f902193214c0ee91dd35ee5b4d920cba8d519eca65a7b488ca9133855260068152818520549082519485528401523392a280f35b803b15610485578480916064855180948193630457067b60e31b8352338c8401528860248401528160448401525af1801561047b57156103d25767ffffffffffffffff8195929511610468578252929350835f6103d2565b634e487b7160e01b825260418652602482fd5b83513d87823e3d90fd5b8480fd5b6104a99150833d85116104af575b6104a18183611053565b810190611089565b5f6103cb565b503d610497565b84513d88823e3d90fd5b6104d79150843d86116104af576104a18183611053565b5f610383565b8490606492519162461bcd60e51b835282015260166024820152754d757374206465706f73697420736f6d657468696e6760501b6044820152fd5b509190346101ca5760208060031936011261018e576001548435926001600160a01b0391610549908316331461117c565b83855260078352808520600390818101805461056860ff8216156111c8565b60ff8160081c166105f35761ff001916610100179055600101805493875b8581106105bb5788887f2d529b69802c34e455e4ac64a23bd6969039ed14c134027ed2903cbc04c0952c89898951908152a280f35b6105ee908a54836105cc8387611153565b905490881b1c168b52600689526105e7878c209182546110e5565b9055611206565b610586565b845162461bcd60e51b8152808b01889052601060248201526f105b1c9958591e481c99599d5b99195960821b6044820152606490fd5b5050346101ca57816003193601126101ca5760035490516001600160a01b039091168152602090f35b509190346101ca5760208060031936011261018e578335903384526006815282842054855480911061081557828552600790818352600285872001338752835260ff85872054166107e05783865281835260ff60038688200154166107a6578386528183526106cd60ff6003878920015460081c1615611113565b338652600683526106e2858720918254611106565b905585548386528183526106fa8587209182546110e5565b9055828552808252600184862001805490680100000000000000008210156107935791610750827f6d71ed1db21e0b5d0289b076b8d7ecdaf4b86e36dbdc5c3fd2cc468ece7c5645959460018b95018155611153565b81549060031b9033821b9160018060a01b03901b191617905584875282526002858720013387528252848620600160ff198254161790555493519384523393a380f35b634e487b7160e01b875260418852602487fd5b845162461bcd60e51b8152808801849052601460248201527311d85b5948185b1c9958591e481cd95d1d1b195960621b6044820152606490fd5b845162461bcd60e51b8152808801849052600f60248201526e105b1c9958591e481dd859d95c9959608a1b6044820152606490fd5b835162461bcd60e51b8152808701839052601e60248201527f496e73756666696369656e742062616c616e636520666f7220776167657200006044820152606490fd5b5050346101ca57816003193601126101ca57905490516001600160a01b039091168152602090f35b503461018e578260031936011261018e5782546001600160a01b03908116906108aa338314611214565b8185526020926006845284862054928315610951578652600684528486208690556003548654865163a9059cbb60e01b81529084166001600160a01b031692810192835260208301949094528492849291169082908890829060400103925af19182156109445761092493508492610927575b50506110a1565b80f35b61093d9250803d106104af576104a18183611053565b5f8061091d565b50505051903d90823e3d90fd5b855162461bcd60e51b815280830186905260136024820152724e6f206665657320746f20776974686472617760681b6044820152606490fd5b509190346101ca57806003193601126101ca5782359060249081359067ffffffffffffffff95868311610bbe5736602384011215610bbe5782810135968711610bbe57600590368589841b86010111610bba576001805460ff99906001600160a01b03906109fb908216331461117c565b888a5260209360078552868b206003810190610a2a82549e8f610a20828216156111c8565b60081c1615611113565b549c8d15610b85578415610b4f5760ff19168517905585548c810291908d830403610b3d575091610a6260648293959404809d611106565b04948a5b828110610b05575050828a54168a5260068452858a20610a878c82546110e5565b90558551978160608a0160608b5252608089019701928a905b828210610ade578b8b7f3a5eb24acb43171a514dfd2ed6c746dd03370714f7b0d879fe720d75281220528f8d8d81928e8e8e8501528301520390a280f35b90919293978835828116809103610b015781528501978501939291830190610aa0565b8c80fd5b898183969495961b8a010135838116809103610b015790610b34918d5260068752888d206105e78982546110e5565b93929193610a66565b634e487b7160e01b8c5260119052888bfd5b885162461bcd60e51b81528084018890526011818d0152704d75737420686176652077696e6e65727360781b6044820152606490fd5b885162461bcd60e51b81528084018890526010818d01526f4e6f20706f7420746f20736574746c6560801b6044820152606490fd5b8680fd5b8580fd5b503461018e57602036600319011261018e5760038260209460ff933581526007865220015460081c1690519015158152f35b50903461018e57602036600319011261018e57813591610c1e60018060a01b038554163314611214565b60148311610c5e57507fb404cac19fb1cbeff98d325795b08886e3cd8fe8cb1a2f193aac66f13fb239c3906005548151908152836020820152a160055580f35b6020606492519162461bcd60e51b8352820152600c60248201526b08ccaca40e8dede40d0d2ced60a31b6044820152fd5b503461018e57602036600319011261018e5760209282913581526007845220549051908152f35b50903461018e578260031936011261018e5760035481516370a0823160e01b81523093810193909352602090839060249082906001600160a01b03165afa918215610d43578392610d0c575b6020838351908152f35b9091506020813d8211610d3b575b81610d2760209383611053565b8101031261018e576020925051905f610d02565b3d9150610d1a565b81513d85823e3d90fd5b503461018e578160031936011261018e576024356001600160a01b0381169190829003610d9a5760209360ff92849235825260078652600283832001908252855220541690519015158152f35b8380fd5b503461018e578260031936011261018e5760209250549051908152f35b503461018e5760209081600319360112610d9a573583526007815281832082516001918201805480835290865283862082850196939491879190855b818110610e495750505082610e0d910383611053565b8451948186019282875251809352850195925b828110610e2d5785870386f35b83516001600160a01b0316875295810195928101928401610e20565b82546001600160a01b0316845292840192918701918701610df7565b5050346101ca57816003193601126101ca5760015490516001600160a01b039091168152602090f35b509190346101ca576020908160031936011261018e5783359133845260068152828285205410610f89578083610f10959633885260068352848820610ed4838254611106565b9055600354855163a9059cbb60e01b8152339281019283526020830193909352919687926001600160a01b03169183918a918391604090910190565b03925af1938415610f7f577f92ccf450a286a957af52509bc1c9939d1a6a481783e142e41e2499f0bb66ebc69394610f4e918791610f6857506110a1565b33855260068152818520549082519485528401523392a280f35b6104d79150833d85116104af576104a18183611053565b82513d87823e3d90fd5b8490606492519162461bcd60e51b83528201526014602482015273496e73756666696369656e742062616c616e636560601b6044820152fd5b833461101157602036600319011261101157610fdc611039565b81546001600160a01b039190610ff59083163314611214565b166bffffffffffffffffffffffff60a01b600154161760015580f35b80fd5b8490346101ca57816003193601126101ca576002546001600160a01b03168152602090f35b600435906001600160a01b038216820361104f57565b5f80fd5b90601f8019910116810190811067ffffffffffffffff82111761107557604052565b634e487b7160e01b5f52604160045260245ffd5b9081602091031261104f5751801515810361104f5790565b156110a857565b60405162461bcd60e51b8152602060048201526015602482015274151bdad95b881d1c985b9cd9995c8819985a5b1959605a1b6044820152606490fd5b919082018092116110f257565b634e487b7160e01b5f52601160045260245ffd5b919082039182116110f257565b1561111a57565b60405162461bcd60e51b815260206004820152601160248201527011d85b59481dd85cc81c99599d5b991959607a1b6044820152606490fd5b8054821015611168575f5260205f2001905f90565b634e487b7160e01b5f52603260045260245ffd5b1561118357565b60405162461bcd60e51b815260206004820152601860248201527f4f6e6c7920736574746c656d656e7420636f6e747261637400000000000000006044820152606490fd5b156111cf57565b60405162461bcd60e51b815260206004820152600f60248201526e105b1c9958591e481cd95d1d1b1959608a1b6044820152606490fd5b5f1981146110f25760010190565b1561121b57565b60405162461bcd60e51b815260206004820152600a60248201526927b7363c9037bbb732b960b11b6044820152606490fdfea264697066735822122062c51298cec65386f1d16901501b70a9d2d09931b3ef74ed43b0ed7ca0ab802364736f6c63430008140033","linkReferences":{}},"methodIdentifiers":{"agentRegistry()":"0d1cfcae","balances(address)":"27e235e3","deposit(uint256)":"b6b55f25","gameSettlement()":"32fb035c","getBalance(address)":"f8b2cb4f","getContractBalance()":"6f9fb98a","getGamePlayers(bytes32)":"3c261734","getGamePot(bytes32)":"77d698ba","hasWagered(bytes32,address)":"65128598","isGameRefunded(bytes32)":"7ac20cf1","isGameSettled(bytes32)":"d6766eef","owner()":"8da5cb5b","placeWager(bytes32)":"984c1f3d","protocolFeePercent()":"d6e6eb9f","refundGame(bytes32)":"b0246708","setGameSettlement(address)":"2d1b2c06","setProtocolFee(uint256)":"787dce3d","setWagerAmount(uint256)":"ffd924a6","setWagerToken(address)":"c3169e87","settleGame(bytes32,address[])":"857ae419","transferOwnership(address)":"f2fde38b","wagerAmount()":"49de4704","wagerToken()":"adad3685","withdraw(uint256)":"2e1a7d4d","withdrawProtocolFees()":"8795cccb"},"id":18}