{"abi":[{"type":"constructor","inputs":[{"name":"_agentRegistry","type":"address","internalType":"address"}],"stateMutability":"nonpayable"},{"type":"receive","stateMutability":"payable"},{"type":"function","name":"agentRegistry","inputs":[],"outputs":[{"name":"","type":"address","internalType":"contract AgentRegistry"}],"stateMutability":"view"},{"type":"function","name":"balances","inputs":[{"name":"","type":"address","internalType":"address"}],"outputs":[{"name":"","type":"uint256","internalType":"uint256"}],"stateMutability":"view"},{"type":"function","name":"deposit","inputs":[],"outputs":[],"stateMutability":"payable"},{"type":"function","name":"gameSettlement","inputs":[],"outputs":[{"name":"","type":"address","internalType":"address"}],"stateMutability":"view"},{"type":"function","name":"getBalance","inputs":[{"name":"agent","type":"address","internalType":"address"}],"outputs":[{"name":"","type":"uint256","internalType":"uint256"}],"stateMutability":"view"},{"type":"function","name":"getContractBalance","inputs":[],"outputs":[{"name":"","type":"uint256","internalType":"uint256"}],"stateMutability":"view"},{"type":"function","name":"getGamePlayers","inputs":[{"name":"gameId","type":"bytes32","internalType":"bytes32"}],"outputs":[{"name":"","type":"address[]","internalType":"address[]"}],"stateMutability":"view"},{"type":"function","name":"getGamePot","inputs":[{"name":"gameId","type":"bytes32","internalType":"bytes32"}],"outputs":[{"name":"","type":"uint256","internalType":"uint256"}],"stateMutability":"view"},{"type":"function","name":"hasWagered","inputs":[{"name":"gameId","type":"bytes32","internalType":"bytes32"},{"name":"agent","type":"address","internalType":"address"}],"outputs":[{"name":"","type":"bool","internalType":"bool"}],"stateMutability":"view"},{"type":"function","name":"isGameRefunded","inputs":[{"name":"gameId","type":"bytes32","internalType":"bytes32"}],"outputs":[{"name":"","type":"bool","internalType":"bool"}],"stateMutability":"view"},{"type":"function","name":"isGameSettled","inputs":[{"name":"gameId","type":"bytes32","internalType":"bytes32"}],"outputs":[{"name":"","type":"bool","internalType":"bool"}],"stateMutability":"view"},{"type":"function","name":"owner","inputs":[],"outputs":[{"name":"","type":"address","internalType":"address"}],"stateMutability":"view"},{"type":"function","name":"placeWager","inputs":[{"name":"gameId","type":"bytes32","internalType":"bytes32"}],"outputs":[],"stateMutability":"nonpayable"},{"type":"function","name":"protocolFeePercent","inputs":[],"outputs":[{"name":"","type":"uint256","internalType":"uint256"}],"stateMutability":"view"},{"type":"function","name":"refundGame","inputs":[{"name":"gameId","type":"bytes32","internalType":"bytes32"}],"outputs":[],"stateMutability":"nonpayable"},{"type":"function","name":"setGameSettlement","inputs":[{"name":"_gameSettlement","type":"address","internalType":"address"}],"outputs":[],"stateMutability":"nonpayable"},{"type":"function","name":"setProtocolFee","inputs":[{"name":"_feePercent","type":"uint256","internalType":"uint256"}],"outputs":[],"stateMutability":"nonpayable"},{"type":"function","name":"setWagerAmount","inputs":[{"name":"_wagerAmount","type":"uint256","internalType":"uint256"}],"outputs":[],"stateMutability":"nonpayable"},{"type":"function","name":"settleGame","inputs":[{"name":"gameId","type":"bytes32","internalType":"bytes32"},{"name":"winners","type":"address[]","internalType":"address[]"}],"outputs":[],"stateMutability":"nonpayable"},{"type":"function","name":"transferOwnership","inputs":[{"name":"newOwner","type":"address","internalType":"address"}],"outputs":[],"stateMutability":"nonpayable"},{"type":"function","name":"wagerAmount","inputs":[],"outputs":[{"name":"","type":"uint256","internalType":"uint256"}],"stateMutability":"view"},{"type":"function","name":"withdraw","inputs":[{"name":"amount","type":"uint256","internalType":"uint256"}],"outputs":[],"stateMutability":"nonpayable"},{"type":"function","name":"withdrawProtocolFees","inputs":[],"outputs":[],"stateMutability":"nonpayable"},{"type":"event","name":"Deposited","inputs":[{"name":"agent","type":"address","indexed":true,"internalType":"address"},{"name":"amount","type":"uint256","indexed":false,"internalType":"uint256"},{"name":"newBalance","type":"uint256","indexed":false,"internalType":"uint256"}],"anonymous":false},{"type":"event","name":"GameRefunded","inputs":[{"name":"gameId","type":"bytes32","indexed":true,"internalType":"bytes32"},{"name":"playersRefunded","type":"uint256","indexed":false,"internalType":"uint256"}],"anonymous":false},{"type":"event","name":"GameSettled","inputs":[{"name":"gameId","type":"bytes32","indexed":true,"internalType":"bytes32"},{"name":"winners","type":"address[]","indexed":false,"internalType":"address[]"},{"name":"winningsPerPlayer","type":"uint256","indexed":false,"internalType":"uint256"},{"name":"protocolFee","type":"uint256","indexed":false,"internalType":"uint256"}],"anonymous":false},{"type":"event","name":"ProtocolFeeUpdated","inputs":[{"name":"oldFee","type":"uint256","indexed":false,"internalType":"uint256"},{"name":"newFee","type":"uint256","indexed":false,"internalType":"uint256"}],"anonymous":false},{"type":"event","name":"WagerAmountUpdated","inputs":[{"name":"oldAmount","type":"uint256","indexed":false,"internalType":"uint256"},{"name":"newAmount","type":"uint256","indexed":false,"internalType":"uint256"}],"anonymous":false},{"type":"event","name":"WagerPlaced","inputs":[{"name":"gameId","type":"bytes32","indexed":true,"internalType":"bytes32"},{"name":"agent","type":"address","indexed":true,"internalType":"address"},{"name":"amount","type":"uint256","indexed":false,"internalType":"uint256"}],"anonymous":false},{"type":"event","name":"Withdrawn","inputs":[{"name":"agent","type":"address","indexed":true,"internalType":"address"},{"name":"amount","type":"uint256","indexed":false,"internalType":"uint256"},{"name":"newBalance","type":"uint256","indexed":false,"internalType":"uint256"}],"anonymous":false}],"bytecode":{"object":"0x608034608e57601f61118638819003918201601f19168301916001600160401b03831184841017609257808492602094604052833981010312608e57516001600160a01b03811690819003608e57678ac7230489e8000060035560056004555f80546001600160a01b03199081163317909155600280549091169190911790556040516110df90816100a78239f35b5f80fd5b634e487b7160e01b5f52604160045260245ffdfe6080806040526004361015610074575b50361561001a575f80fd5b335f52600560205260405f20610031348254611073565b9055335f52600560205260405f20546040519034825260208201527f73a19dd210f1a7f902193214c0ee91dd35ee5b4d920cba8d519eca65a7b488ca60403392a2005b5f905f3560e01c9081630d1cfcae14610e8b5750806327e235e314610e535780632d1b2c0614610e045780632e1a7d4d14610d3557806332fb035c14610d0d5780633c26173414610c5257806349de470414610c355780636512859814610bde5780636f9fb98a14610bc357806377d698ba14610b99578063787dce3d14610afe5780637ac20cf114610ac9578063857ae4191461087f5780638795cccb146107d95780638da5cb5b146107b2578063984c1f3d14610585578063b024670814610473578063d0e30db0146102ed578063d6766eef146102bb578063d6e6eb9f1461029d578063f2fde38b14610215578063f8b2cb4f146101dc5763ffd924a60361000f57346101d95760203660031901126101d9576004356101a160018060a01b038354163314610ec4565b7fafdc20ac1d421ba9009d06290160ca77210434bbebe841d29af7367ab73bc45c60406003548151908152836020820152a160035580f35b80fd5b50346101d95760203660031901126101d9576020906040906001600160a01b03610204610eae565b168152600583522054604051908152f35b50346101d95760203660031901126101d95761022f610eae565b815490610246336001600160a01b03841614610ec4565b6001600160a01b0316908115610266576001600160a01b03191617815580f35b60405162461bcd60e51b815260206004820152600f60248201526e496e76616c6964206164647265737360881b6044820152606490fd5b50346101d957806003193601126101d9576020600454604051908152f35b50346101d95760203660031901126101d95760ff60036040602093600435815260068552200154166040519015158152f35b505f3660031901126103f657341561043557335f52600560205260405f20610316348254611073565b905560025460405163c3c5a54760e01b81523360048201526001600160a01b0390911690602081602481855afa9081156103eb575f916103fa575b501561039b575b50338152600560205260408120546040519034825260208201527f73a19dd210f1a7f902193214c0ee91dd35ee5b4d920cba8d519eca65a7b488ca60403392a280f35b803b156103f6575f8091606460405180948193630457067b60e31b8352336004840152604060248401528160448401525af180156103eb5715610358576103e491505f90610f0a565b5f5f610358565b6040513d5f823e3d90fd5b5f80fd5b90506020813d60201161042d575b8161041560209383610f0a565b810103126103f6575180151581036103f6575f610351565b3d9150610408565b60405162461bcd60e51b81526020600482015260166024820152754d757374206465706f73697420736f6d657468696e6760501b6044820152606490fd5b346103f65760203660031901126103f65760043561049c60018060a01b03600154163314610fa9565b805f52600660205260405f2060038101908154916104bd60ff841615610ff5565b60ff8360081c1661054d5761010060019361ff001916179055018054905f5b82811061051157837f2d529b69802c34e455e4ac64a23bd6969039ed14c134027ed2903cbc04c0952c602085604051908152a2005b6001906003546105218285611080565b848060a01b0391549060031b1c165f52600560205261054560405f20918254611073565b9055016104dc565b60405162461bcd60e51b815260206004820152601060248201526f105b1c9958591e481c99599d5b99195960821b6044820152606490fd5b346103f65760203660031901126103f657600435335f52600560205260405f205460035480911061076d575f82815260066020908152604080832033845260020190915290205460ff1661073657815f52600660205260ff600360405f200154166106fa57815f52600660205261060960ff600360405f20015460081c1615611033565b335f52600560205261062060405f20918254610efd565b9055600354815f52600660205261063c60405f20918254611073565b9055805f526006602052600160405f20018054680100000000000000008110156106e65761066f91600182018155611080565b81549060031b9033821b9160018060a01b03901b1916179055805f526006602052600260405f200160018060a01b0333165f5260205260405f20600160ff19825416179055600354906040519182527f6d71ed1db21e0b5d0289b076b8d7ecdaf4b86e36dbdc5c3fd2cc468ece7c564560203393a3005b634e487b7160e01b5f52604160045260245ffd5b60405162461bcd60e51b815260206004820152601460248201527311d85b5948185b1c9958591e481cd95d1d1b195960621b6044820152606490fd5b60405162461bcd60e51b815260206004820152600f60248201526e105b1c9958591e481dd859d95c9959608a1b6044820152606490fd5b60405162461bcd60e51b815260206004820152601e60248201527f496e73756666696369656e742062616c616e636520666f7220776167657200006044820152606490fd5b346103f6575f3660031901126103f6575f546040516001600160a01b039091168152602090f35b346103f6575f3660031901126103f6575f546001600160a01b03166107ff338214610ec4565b805f52600560205260405f20548015610844575f80808093610842958252600560205281604081205560018060a01b038254165af161083c610f2c565b50610f6b565b005b60405162461bcd60e51b81526020600482015260136024820152724e6f206665657320746f20776974686472617760681b6044820152606490fd5b346103f65760403660031901126103f65760243560043567ffffffffffffffff82116103f657366023830112156103f65781600401359167ffffffffffffffff83116103f6573660248460051b830101116103f6576108e960018060a01b03600154163314610fa9565b815f52600660205260405f20916003830180549361090a60ff861615610ff5565b61091a60ff8660081c1615611033565b54938415610a91578515610a585760ff191660011790556004548381029084820403610a445761094f60648692048095610efd565b04935f5b8181101561099a576024600582901b850101356001600160a01b03811691908290036103f6576001915f52600560205260405f20610992888254611073565b905501610953565b509192909360018060a01b035f54165f52600560205260405f206109bf838254611073565b905560405192806060850160608652526024608085019501905f905b808210610a1857505050602083015260408201527f3a5eb24acb43171a514dfd2ed6c746dd03370714f7b0d879fe720d75281220529181900390a2005b9091949585359060018060a01b0382168092036103f657908152602090810196950191600101906109db565b634e487b7160e01b5f52601160045260245ffd5b60405162461bcd60e51b81526020600482015260116024820152704d75737420686176652077696e6e65727360781b6044820152606490fd5b60405162461bcd60e51b815260206004820152601060248201526f4e6f20706f7420746f20736574746c6560801b6044820152606490fd5b346103f65760203660031901126103f6576004355f526006602052602060ff600360405f20015460081c166040519015158152f35b346103f65760203660031901126103f657600435610b2660018060a01b035f54163314610ec4565b60148111610b65577fb404cac19fb1cbeff98d325795b08886e3cd8fe8cb1a2f193aac66f13fb239c360406004548151908152836020820152a1600455005b60405162461bcd60e51b815260206004820152600c60248201526b08ccaca40e8dede40d0d2ced60a31b6044820152606490fd5b346103f65760203660031901126103f6576004355f526006602052602060405f2054604051908152f35b346103f6575f3660031901126103f657602047604051908152f35b346103f65760403660031901126103f6576024356001600160a01b03811681036103f6576004355f526006602052600260405f20019060018060a01b03165f52602052602060ff60405f2054166040519015158152f35b346103f6575f3660031901126103f6576020600354604051908152f35b346103f65760203660031901126103f6576004355f526006602052600160405f2001604051806020835491828152019081935f5260205f20905f5b818110610cee5750505081610ca3910382610f0a565b604051918291602083019060208452518091526040830191905f5b818110610ccc575050500390f35b82516001600160a01b0316845285945060209384019390920191600101610cbe565b82546001600160a01b0316845260209093019260019283019201610c8d565b346103f6575f3660031901126103f6576001546040516001600160a01b039091168152602090f35b346103f65760203660031901126103f657600435335f5260056020528060405f205410610dc857335f52600560205260405f20610d73828254610efd565b9055610d885f80808085335af161083c610f2c565b335f52600560205260405f205460405191825260208201527f92ccf450a286a957af52509bc1c9939d1a6a481783e142e41e2499f0bb66ebc660403392a2005b60405162461bcd60e51b8152602060048201526014602482015273496e73756666696369656e742062616c616e636560601b6044820152606490fd5b346103f65760203660031901126103f657610e1d610eae565b610e3160018060a01b035f54163314610ec4565b600180546001600160a01b0319166001600160a01b0392909216919091179055005b346103f65760203660031901126103f6576001600160a01b03610e74610eae565b165f526005602052602060405f2054604051908152f35b346103f6575f3660031901126103f6576002546001600160a01b03168152602090f35b600435906001600160a01b03821682036103f657565b15610ecb57565b60405162461bcd60e51b815260206004820152600a60248201526927b7363c9037bbb732b960b11b6044820152606490fd5b91908203918211610a4457565b90601f8019910116810190811067ffffffffffffffff8211176106e657604052565b3d15610f66573d9067ffffffffffffffff82116106e65760405191610f5b601f8201601f191660200184610f0a565b82523d5f602084013e565b606090565b15610f7257565b60405162461bcd60e51b815260206004820152600f60248201526e151c985b9cd9995c8819985a5b1959608a1b6044820152606490fd5b15610fb057565b60405162461bcd60e51b815260206004820152601860248201527f4f6e6c7920736574746c656d656e7420636f6e747261637400000000000000006044820152606490fd5b15610ffc57565b60405162461bcd60e51b815260206004820152600f60248201526e105b1c9958591e481cd95d1d1b1959608a1b6044820152606490fd5b1561103a57565b60405162461bcd60e51b815260206004820152601160248201527011d85b59481dd85cc81c99599d5b991959607a1b6044820152606490fd5b91908201809211610a4457565b8054821015611095575f5260205f2001905f90565b634e487b7160e01b5f52603260045260245ffdfea26469706673582212202336afbfa6f0c8203975e441e8dfea89a5983808013324b56a7800bb67de3b6964736f6c634300081c0033","linkReferences":{}},"methodIdentifiers":{"agentRegistry()":"0d1cfcae","balances(address)":"27e235e3","deposit()":"d0e30db0","gameSettlement()":"32fb035c","getBalance(address)":"f8b2cb4f","getContractBalance()":"6f9fb98a","getGamePlayers(bytes32)":"3c261734","getGamePot(bytes32)":"77d698ba","hasWagered(bytes32,address)":"65128598","isGameRefunded(bytes32)":"7ac20cf1","isGameSettled(bytes32)":"d6766eef","owner()":"8da5cb5b","placeWager(bytes32)":"984c1f3d","protocolFeePercent()":"d6e6eb9f","refundGame(bytes32)":"b0246708","setGameSettlement(address)":"2d1b2c06","setProtocolFee(uint256)":"787dce3d","setWagerAmount(uint256)":"ffd924a6","settleGame(bytes32,address[])":"857ae419","transferOwnership(address)":"f2fde38b","wagerAmount()":"49de4704","withdraw(uint256)":"2e1a7d4d","withdrawProtocolFees()":"8795cccb"},"id":23}